:1003C20030313233343536373839002020464D202B
:1003D200524543454956455220202000202D464D86
:1003E2002052454345495645522D202000202020C9
:1003F20020202D4155544F2D202020202000202048
:10040200202020204155544F202020202020002051
:100412002020202D4D414E55414C2D2020202000E2
:1004220020202020204D414E55414C2020202020CC
:100432000020464D205452414E534D49545445528A
:1004420020002D464D205452414E534D495454459F
:10045200522D002020202057454C434F4D4520204F
:1004620020202000202E2E2E2E2E2E2E2E2E2E2E10
:100472002E2E2E200020202053455420504F574529
:10048200522020202000001F0011000A0004000456
:10049200000400040004000000000000000000004E
:1004A20000000006001E0000000000000000000620
:1004B200001E001E001E000000000006001E001E9E
:1004C200001E001E001E0006001E001E001E001E52
:0604D200001E001E001ECA
:10099E00EF25E092B725E0929025E0929125E09226
:1009AE009225E0929325E0929425E0929525E0928F
:0E09BE00967F057E001209CCD2977F057E0041
:1009CC00D3EF9400EE940040147D467C00ED1D7036
:0D09DC00011CED4C70F7EF1F70E61E80E36C
:0109E90022EB
:080CD400120CDC120CDCD2A4AE
:010CDC0022F5
:07000300C2A112099EC29781
:01000A0022D3
:100724003AFA7FC31200037F461207A27F4D1207D5
:10073400A27F3A1207A27C037DE8AF03AE0212083F
:100744008F74C22FF58274033EF583E493FF12077E
:10075400A27C037DE8AF03AE0212088F7E007F64A3
:10076400CFCDCFCECCCE12088F74C22FF5827403B6
:100774003EF583E493FF1207A27C007D64AF03AED1
:100784000212088F7E007F0ACFCDCFCECCCE1208C6
:0E0794008F74C22FF58274033EF583E493FF49
:0707A200D2A112099EC297CB
:0107A900222D
:1007AA0090000B7440F0C297C2A0C2A17F38120019
:1007BA00037F0C1200037F061200037F011200035D
:1007CA00E490000AF090000AE0FFC394055048EF55
:1007DA0075F008A4FFA3E02FFF120003E4900009BC
:1007EA00F0900009E0FFC394085024A3E0C454F039
:1007FA002488F582E43404F58375F002EF1208E4E4
:10080A00740193FF1207A2900009E004F080D290CD
:07081A00000AE004F080AECB
:0108210022B4
:0A0CC000D2A5120CDCD2A4020CDC59
:0F0C7300D2A4120CDCD2A5120CDCC2A5020CDC40
:0A0CCA00C2A5120CD7D2A5020CDC63
:0D0C8200C2A4120CDCC2A5120CD4C2A42224
:0D0C8F00C2A4120CDCD2A5120CD4C2A42207
:090BF700FA120C737F22120C3D6E
:100C0000D2A5120CD730A50E900011E0C394FA5073
:0B0C100005E004F080EFC2A4020CDC41
:100C3D00E4FEEF25E0FFC2A4120CDC92A5120CD746
:0F0C4D000EEEB408EDC2A4120CDCD2A5020CDC32
:1009EA00C2A4120CDCD2A5120CDCE4FDFCD2A412C7
:1009FA000CDC900012E025E0FF900011E033FEA22B
:100A0A00A5E433FBEF4BFFEEF0A3EFF0C2A4120C08
:100A1A00DC0DBD00010CED64084C70D1120CDC1227
:080A2A000CDC900011A3E0FFB9
:010A320022A1
:080BC800EEF07D817CD27F027A
:020BD000A90773
:100BD200AA04EAFB3395E0120BF7AF01120C3D12A7
:100BE2000C00AF03120C3D120C00AF05120C3D12AB
:050BF2000C00020CCA1A
:02094F00AD07F2
:10095100E490000FF0A3F0FB120BF7AF05120C3D72
:10096100120C001209C8120C737F23120C3D120CD9
:10097100001209EA90000FE4F0A3EFF0120C8212CA
:1009810009EAAB07120C8F120CCA900010E07F002D
:0C099100FE90000FF0A3EFF0AD03EDFFAF
:01099D002237
:100AED00E4FB20A20E7F0AFE1209CC20A20530A243
:100AFD00FD7B0120A30F7F0A7E001209CC20A305E8
:100B0D0030A3FD7B0220B20F7F0A7E001209CC209C
:090B1D00B20530B2FD7B03AF0309
:010B260022AC
:0A0A3300900004EEF0A3EFF0D206ED
:100A3D003006237F80120003E4FB7F201207A20BF8
:100A4D00EBB410F67FC0120003E4FB7F201207A267
:100A5D000BEBB410F6227F80120003E4FB7F201213
:070A6D0007A20BEBB405F634
:010A7400225F
:100C1B00D206120A3D7FC0120003E4FBEB90046680
:100C2B0093FF1207A27F2C7E011209CC0BEBB410A1
:010C3B00EBCD
:010C3C002295
:0C067800C2AF900004E0FEA3E0FFD2043B
:08068400900009EEF0A3EFF075
:10068C00E4A3F0A3F0A3F0A3F0C205120C1B90009E
:10069C0009E0FEA3E07806C333CE33CED8F9FF9041
:1006AC000009EEF0A3EFF0AC064410FD7F03120B33
:1006BC00D090000D30040474D3800274D1F0A37474
:1006CC0081F07F0A7E001209CC90000DE0FCA3E0C3
:1006DC00FD7F02120BD07F0A12094F90000BEEF037
:1006EC00A3EFF090000BE0FEA3E07802C333CE330F
:1006FC00CED8F9F0EE90000BF092053005C47F0ACD
:10070C0012094FEE5403900009F0A3EF120BC9909D
:07071C000009E0FEA3E0FF6D
:0107230022B3
:1008F000E4FBFA2004247F0A12094FEE5403FAABFA
:100900000774662BFB74031207247F2E1207A27C48
:10091000007D0AAF03AE020209407F0312094FEFC8
:100920007806CEC313CE13D8F9AA0624F8FB7402B6
:100930001207247F2E1207A2AE02AF037C007D0AAD
:0E09400012088F74C22DF58274033C12079DBD
:01094E002286
:100B95007F0512094FAB07EB540FFB7F871200034C
:100BA5007F561207A27F3A1207A2EB75F00A8490CE
:100BB50003C293FF1207A2EB75F00A84E5F093FFD9
:030BC5000207A282
:100C5C007F8C1200032004047F5280027F54120701
:070C6C00A27F581207A2222B
:1005A9007F4212094FEF543FFF900009E4F0A3EF97
:1005B900F02004547F80120003E4FBEB900477934E
:1005C900FF1207A20BEBB410F27FC61200039000D2
:1005D90009E0FAA3E0FBC3940FEA94005002803DBE
:1005E900C3EB9420EA94005002803F900009E0FA9E
:1005F900A3E0FBC39430EA940050028046C3EB9415
:1006090040EA9400506880527F80120003900009EC
:10061900E0FAA3E0FBC3940FEA940050047F018041
:100629004AC3EB9420EA940050097F011207A27F84
:10063900028038900009E0FAA3E0FBC39430EA9401
:1006490000500E7F011207A27F021207A27F0380CA
:100659001AC3EB9440EA940050147F011207A27F59
:0E066900021207A27F031207A27F041207A24B
:010677002260
:10082200C206120A3D7F0B12094FAA06EA1313549D
:100832003FFB7A007F80120003C3EB9407EA940027
:1008420050047F018043C3EB940EEA940050097F69
:10085200011207A27F028031C3EB9415EA94005083
:100862000E7F011207A27F021207A27F03801AC322
:10087200EB941CEA940050147F011207A27F02122B
:0C08820007A27F031207A27F041207A246
:01088E002247
:0D0C9C00EE4483FCEF44A0FD7F05020BD069
:0B0CB500EE4407FCAD077F42020BD0AD
:080A7500900004E0FEA3E0FF85
:100A7D00900009EEF0A3EFF0900009E0FEA3E078FE
:100A8D0006C333CE33CED8F9F0900009120BC890BF
:100A9D000009E0FCA3E04410FD7F03120BD07F148E
:050AAD007E000209CCEF
:060AB200F0E0FEA3E0FFEE
:100AB800900009EEF0A3EFF0900009E0FEA3E078C3
:100AC80006C333CE33CED8F9F0900009120BC89084
:100AD8000009E0FCA3E04418FD7F03120BD07F144B
:050AE8007E000209CCB4
:100B27007F80120003E4FBEB90045593FF1207A2AA
:100B37007FE87E031209CC0BEBB410EB7FC01200E9
:100B470003E4FBEB90046693FF1207A27F207E036A
:080B57001209CC0BEBB410EB0A
:010B5F002273
:0204D800A90772
:1004DA00E9702FD206120A3D7F80120003E4FAEA7D
:1004EA009003DE93FF1207A20AEAB410F27FC01249
:1004FA000003E4FAEA90043393FF1207A20AEAB46B
:10050A0010F2E96401702FD206120A3D7F801200B0
:10051A0003E4FAEA9003CD93FF1207A20AEAB410A1
:10052A00F27FC0120003E4FAEA90044493FF120730
:10053A00A20AEAB410F2E96402702FD206120A3D46
:10054A007F80120003E4FAEA9003EF93FF1207A2F6
:10055A000AEAB410F27FC0120003E4FAEA90042215
:10056A0093FF1207A20AEAB410F2E96403702FD2C9
:10057A0006120A3D7F80120003E4FAEA900400930F
:10058A00FF1207A20AEAB410F27FC0120003E4FACB
:0E059A00EA90041193FF1207A20AEAB410F2CD
:0105A8002230
:03000B00020B6085
:100B6000C0E0C083C082C0D075D000C002C003C046
:100B700004C005C006C007758CB1758AE012082252
:100B8000D007D006D005D004D003D002D0D0D08278
:050B9000D083D0E0322B
:10000E00E4900004F0A3F0A3F0A3F0A3F0C201C2A9
:10001E0002D203758901758CB1758AE0D2A9D28C92
:10002E00C2AFC2B51207AA120B27120CC07F077EF1
:10003E0000120C9CD206120A3DE4FF1204D8120ADA
:10004E00ED900008EFF064016003020394300203A8
:10005E00020223D206120A3D7F021204D8E4FDFCEE
:10006E007F40120BD0D203200303020223120AEDAB
:10007E00900008EFF0640160030201F23001030208
:10008E000112120678120A33120B95C2041208F0EE
:10009E00C204120C5CD2AFD2032003030201F2128F
:1000AE000AED900008EFF0BF0112C2AFD206120A9D
:1000BE003DE4FF1204D8C202C201C203900008E060
:1000CE0064027015120678120A33120B95C20412CE
:1000DE0008F0C204120C5CD2AF900008E0B403B971
:1000EE00C2AF900004E0FEA3E0FFC2041206841229
:1000FE000A33120B95C2041208F0C204120C5CD221
:10010E00AF0200A7C2AF120C1B120A75D206120A5A
:10011E003D120B95C2041208F0C204120C5CD2AF51
:10012E00D2032003030201F2120AED900008EFF051
:10013E00BF0112C2AFD206120A3DE4FF1204D8C2AA
:10014E0002C201C203900008E06402703FC2AF9089
:10015E000005E0240AF0900004E03400F0120A7862
:10016E00C3900005E094D2900004E094004009E4AE
:10017E00F0A3F0FFFE120A7DD206120A3D120B9575
:10018E00C2041208F0C204120C5CD2AF900008E058
:10019E006403708EC2AF900004E0FEA3E0FF7C000B
:1001AE007D0A12088FC3ED9409EC9400400EE024F2
:1001BE00F6F0900004E034FFF0120A78900005E0AB
:1001CE0004F07006900004E004F0120A75D20612D4
:1001DE000A3D120B95C2041208F0C204120C5CD236
:1001EE00AF020130900008E0B4020EC2AFD2061288
:1001FE000A3DC2017F021204D8900008E064036039
:10020E0003020075C2AFD206120A3DD2017F03125D
:10021E0004D8020075200203020394E4900004F057
:10022E00A3F0C2AFD203120C1B7D017C007F4012E3
:10023E000BD0120BCA7D187C007F03120BD0D20696
:10024E00120A3DC2041205A9E4900008F02003032F
:10025E00020394120AED900008EFF06401600302AD
:10026E00033602031F200303020336120AED900029
:10027E0008EFF0BF0116E4FDFC7F02120BD0C202A4
:10028E00C203D206120A3DE4FF1204D8900008E021
:10029E006402703C900005E0240AF0900004E03403
:1002AE0000120AB2C3900005E09440900004E0945E
:1002BE00014009E4F0A3F0FFFE120AB8D206120ABA
:1002CE003DD2041205A9D204120C5CD2041208F01D
:1002DE00900008E06403708D900004E0FEA3E0FF40
:1002EE007C007D0A12088FC3ED9409EC9400400D3A
:1002FE00E024F6F0900004E034FF120AB2900005FC
:10030E00E004F07006900004E004F0900004120A7D
:10031E00B3D206120A3DD2041205A9D204120C5C05
:10032E00D2041208F0020273900008E06402600327
:10033E0002025B900007E02410F0900006E034000B
:10034E00F0E0FEA3E0FF120CB5900006E0FEA3E085
:10035E00FFD39400EE940050047D0180027D00C313
:10036E00EF9440EE940040047F0180027F00EF4D39
:10037E006007E4900006F0A3F0D206120A3DC20414
:10038E001205A902025B900008E0B4020CD206121C
:10039E000A3DC202E4FF1204D8900008E0B4030C38
:1003AE00D206120A3DD2027F011204D8E490000850
:0403BE00F002004CFD
:03000000020CA946
:0C0CA900787FE4F6D8FD75812002000E73
:10088F00BC000BBE0029EF8DF084FFADF022E4CC4D
:10089F00F875F008EF2FFFEE33FEEC33FCEE9DEC16
:1008AF00984005FCEE9DFE0FD5F0E9E4CEFD22ED5C
:1008BF00F8F5F0EE8420D21CFEADF075F008EF2FA6
:1008CF00FFED33FD4007985006D5F0F222C398FD97
:0508DF000FD5F0EA2234
:0C08E400A42582F582E5F03583F583221F
:00000001FF
