:10000300C0F9A4B0999282F880908883C6A1848EA7
:0D012E00EFD3940040077E7DDEFE1F80F3BE
:01013B0022A1
:040148007F0DDFFE4A
:01014C002290
:1000DA00E50B90000393F590C2A07F0512012ED282
:1000EA00A0E50A93F590C2A17F0512012ED2A1E5DF
:1000FA000993F590C2A27F0512012ED2A2E50893B8
:0C010A00F590C2A37F0512012ED2A322A3
:03001300020016D2
:10001600C0E0C0D075D000C000C004C005C006C096
:0100260007D2
:10002700C2AA7E21E4FD7C64DCFE30B305D2AA02BD
:1000370000CBEE60337C00740C2DF8760120B30CF6
:10004700740C2DF8061201480CBCFAF10D7C0074F3
:100057000C2DF8760130B30C740C2DF806120148FC
:100067000CBCFAF10D1E80CA7DFF7CFFDCFEDDFAB9
:100077007C007D03ECC313FC740C2DF8E6D3941EAF
:10008700400474802CFC0D0DEDC3941340E6ECC4C2
:10009700540FF50BEC540FF50A7C007D23ECC313CA
:1000A700FC740C2DF8E6D3941E400474802CFC0DD0
:1000B7000DEDC3943340E6ECC4540FF509EC540F2F
:0400C700F508D2AABC
:0F00CB00D007D006D005D004D000D0D0D0E0327E
:10011600D2AFD2AAD28A7D647C001200DAED1D70BD
:08012600011CED4C70F480EEA9
:0300000002013CBE
:0C013C00787FE4F6D8FD75814D020116B5
:00000001FF
