:030000000213E008
:0C13E000787FE4F6D8FD75813C021427EC
:10000E0048523230324C2B4E54435F31304B003A13
:10001E000020002020202020202020202020202012
:10002E002020200000000000000000000000000062
:10003E0000000000000038FCFC3800000000000D3D
:10004E000D000000000E1E00001E0E00000000003D
:10005E000000000020F8F820F8F82000020F0F0230
:10006E000F0F0200387C444747CC9800060C083826
:10007E00380F070030300080C06030000C060301DE
:10008E00000C0C0080D87CE4BCD84000070F080898
:10009E00070F080000101E0E0000000000000000F8
:1000AE00000000000000F0F80C0400000000030740
:1000BE000C0800000000040CF8F000000000080C12
:1000CE000703000080A0E0C0C0E0A0800002030192
:1000DE0001030200008080E0E08080000000000349
:1000EE000300000000000000000000000000101ED1
:1000FE000E00000080808080808080000000000064
:10010E000000000000000000000000000000000CD5
:10011E000C00000000000080C06030000C060301DF
:10012E0000000000F8F80CC40CF8F00003070C08EF
:10013E000C070300001018FCFC0000000008080F5C
:10014E000F080800080C84C4643C18000E0F090840
:10015E00080C0C00080C444444FCB800040C0808BD
:10016E00080F0700C0E0B098FCFC800000000008FB
:10017E000F0F08007C7C444444C48400040C08081F
:10018E00080F0700F0F84C4444C08000070F080821
:10019E00080F07000C0C0484C47C3C0000000F0FF9
:1001AE0000000000B8FC444444FCB800070F0808E7
:1001BE00080F0700387C444444FCF8000008080887
:1001CE000C070300000000303000000000000006A5
:1001DE000600000000000030300000000000080E95
:1001EE00060000000080C060301808000000010307
:1001FE00060C080000202020202020000001010114
:10020E00010101000008183060C0800000080C06D3
:10021E0003010000181C04C4E43C18000000000D8B
:10022E000D000000F0F008C8C8F8F000070F080B2A
:10023E000B0B0100E0F0988C98F0E0000F0F00001F
:10024E00000F0F0004FCFC4444FCB800080F0F081C
:10025E00080F0700F0F80C04040C180003070C0834
:10026E00080C060004FCFC040CF8F000080F0F0844
:10027E000C07030004FCFC44E40C1C00080F0F08E0
:10028E00080C0E0004FCFC44E40C1C00080F0F08C4
:10029E0000000000F0F80C84848C980003070C0812
:1002AE0008070F00FCFC404040FCFC000F0F000054
:1002BE00000F0F00000004FCFC0400000000080FFB
:1002CE000F08000000000004FCFC0400070F0808E3
:1002DE000F07000004FCFCC0E03C1C00080F0F00E0
:1002EE00010F0E0004FCFC0400000000080F0F08B4
:1002FE00080C0E00FCFC387038FCFC000F0F0000E0
:10030E00000F0F00FCFC3870E0FCFC000F0F00002B
:10031E00000F0F00F8FC040404FCF800070F080897
:10032E00080F070004FCFC44447C3800080F0F083B
:10033E0000000000F8FC040404FCF800070F080E8F
:10034E003C3F270004FCFC44C4FC3800080F0F009F
:10035E00000F0F00183C6444C49C1800060E0808D9
:10036E00080F0700001C0CFCFC0C1C000000080F02
:10037E000F080000FCFC000000FCFC00070F080842
:10038E00080F0700FCFC000000FCFC000103060C3B
:10039E0006030100FCFC000000FCFC00070F0E032E
:1003AE000E0F07000C3CF0E0F03C0C000C0F0301AC
:1003BE00030F0C00000C7CC0C07C3C000000080F3A
:1003CE000F0800001C0C84C4643C1C000E0F0908AE
:1003DE00080C0E000000FCFC0404000000000F0FCF
:1003EE00080800003870E0C0800000000000000126
:1003FE0003070E0000000404FCFC000000000808C7
:10040E000F0F0000080C0603060C08000000000089
:10041E00000000000000000000000000202020204E
:10042E002020202000000307040000000000000030
:10043E000000000000A0A0A0E0C00000070F080808
:10044E00070F080004FCFC2060C08000000F0F089E
:10045E00080F0700C0E0202020604000070F0808AA
:10046E00080C040080C06024FCFC0000070F080884
:10047E00070F0800C0E0A0A0A0E0C000070F08080A
:10048E00080C040040F8FC440C180000080F0F087C
:10049E0000000000C0E02020C0E02000276F484888
:1004AE007F3F000004FCFC4020E0C000080F0F005E
:1004BE00000F0F00000020ECEC0000000000080F01
:1004CE000F0800000000000020ECEC00003070402F
:1004DE00407F3F0004FCFC80C0602000080F0F012D
:1004EE00030E0C00000004FCFC0000000000080FCE
:1004FE000F080000E0E060C060E0C0000F0F0007D2
:10050E00000F0F0020E0C02020E0C000000F0F0001
:10051E00000F0F00C0E0202020E0C000070F0808E9
:10052E00080F070020E0C02020E0C000407F7F4879
:10053E00080F0700C0E02020C0E02000070F084889
:10054E007F7F400020E0C06020E0C000080F0F0851
:10055E000000000040E0A02020604000040C0909CB
:10056E000B0E04002020F8FC202000000000070FD6
:10057E00080C0400E0E00000E0E00000070F0808AF
:10058E00070F080000E0E00000E0E0000003070CA9
:10059E000C070300E0E0008000E0E000070F0C070E
:1005AE000C0F07002060C080C0602000080C0703FD
:1005BE00070C0800E0E0000000E0E000474F48486C
:1005CE00683F1F00606020A0E06020000C0E0B0949
:1005DE00080C0C00004040F8BC04040000000007AA
:1005EE000F080800000000BCBC0000000000000F57
:1005FE000F000000000404BCF84040000008080F83
:10060E0007000000080C040C080C04000000000099
:10061E00000000001060028C00FE92929292929264
:10062E00FE00000004047E014448507F40407F508D
:10063E00484440000000FC242424FC252624FC24ED
:10064E002424040040308F80844C55252525554C9C
:10065E00808080001060028C0000FE929292929236
:10066E00FE00000004047E01407E42427E427E4235
:10067E00427E4000060909E6F80C0402020202025C
:10068E00041E0000000000071F3020404040404084
:10069E002010000000007C82827C00804020100828
:1006AE000402000000201008040201003E41413EF9
:1006BE00000000000033003400370039003C003FDA
:1006CE00004200450049004D005000540059005DA5
:1006DE0000610066006A006F00740079007E00847D
:1006EE000089008F0095009B00A100A800AF00B507
:1006FE0000BD00C400CB00D300DB00E300EB00F331
:10070E0000FB0104010D0115011E01270130013905
:10071E000142014B0154015D01660167016B0172DB
:10072E00017B01850190019C01A901B601C201CF97
:10073E0001DC01E801F401FF020A0215021F022981
:10074E000233023C0245024E0257026002680271F9
:10075E0002790282028A0292029A02A202AA02B1CD
:10076E0002B902C102C802D002D702DE02E502ECD3
:10077E0002F302FA03010308030F0316031D0320FD
:10078E0003240328032D03310336033B03410346A1
:10079E00034B034F03540358035D03610365036862
:1007AE00036C036F037203760378037B037E03816E
:1007BE00038303860389038B038E039103930396AE
:1007CE000399039B039E03A103A303A603A803ABF4
:1007DE0003AD03B003B203B403B603B703B903BA50
:0207EE0003BA4C
:10169B000223000002290000022100000237000093
:0416AB00C100C101B8
:0816B0007F0C7EA9DEFEDFFCC9
:0116B800220F
:07166B001215E37F017E0070
:10167200AD07AC06ED1DAE0470011C4E60051216DE
:04168200B080F12221
:1015E300C2B3C2B7E4FEC290EF30E704D2918002E7
:1015F300C291D2907D01EF7801088002C333D8FCF9
:05160300FF0EBE08E12E
:0116080022BF
:10160900C2B3D2B7E4FEC290EF30E704D2918002B0
:10161900C291D2907D01EF7801088002C333D8FCD2
:05162900FF0EBE08E108
:01162E002299
:1014DE00C2B3C2B67F027E00121672D2B67F0A7EE9
:1014EE00001216727FE212166B7F2C1215E37F2EFE
:1014FE001215E37F2F12166B7F231215E37F8112D5
:10150E0015E37F281215E37FA21215E37FC812158B
:10151E00E37FA01215E37F401215E37FAF1215E3B0
:03152E00D2B32213
:10162F00AC05C2B31C1FEF24B0FF1215E3ECC4547A
:0E163F000F2410FF1215E3EC540FFF0215E309
:10164D00C2B3E4FBEB04FF7D0112162FE4FCE4FFB3
:0D165D001216090CBC84F70BBB09E9D2B3CF
:01166A00225D
:041575007BFF7D017A
:041579008F098D0A3F
:10157D00C2B3E4F50BE509250BFFAD0A12162FE4F6
:10158D00FC121178FF121609740129F9E43AFA0CCC
:0E159D00BC10EE050BE50BC3940240D9D2B38F
:0115AB00221D
:061353007A00791D7D21E6
:0A1359008F098D0A8B0B8A0C890D99
:10136300E4F50EC2B3AB0BAA0CA90D850E827583EF
:1013730000121191FFD394004062EF94204059EF83
:10138300D3947E5053EF24E0F9E4FBE5092BFFAD42
:101393000A12162FE4FCEB75F008A4FFEC7583002A
:1013A3002FFFE58335F0FE75F010E9A42432F582B2
:1013B300E5F03400F583E5822FF582E5833EF5837E
:1013C300E493FF1216090CBC08CC0BBB02BD050E3F
:0C13D3007408250AF50A808D050E80893B
:0113DF0022EB
:1007F000AF3CAE3BAD3AAC39E47BE87A03F9F81292
:1008000012B08F3C8E3B8D3A8C39E47F287E0AFDF6
:10081000FCAB3CAA3BA93AA839C31213424036E4C8
:100820007F0AFEFDFCA839121225C374509FFF7485
:100830003A9EFE74029DFDE49CFCE47B0AFAF9F802
:10084000121225E47BC07A12F9F81212B08F288EAA
:10085000278D268C25AF3CAE3BAD3AAC39E47B14FA
:100860007A05F9F8D312134250067F01C0078004BD
:100870007F00C007E47F287E0AFDFCAB3CAA3BA9B1
:100880003AA839C312134250047E0180027E00D080
:10089000E05E603CE47F0AFEFDFCAB3CAA3BA93A6B
:1008A000A839121225C374789FFF74639EFE7401E9
:1008B0009DFDE49CFCE47B0AFAF9F8121225E47B26
:1008C000287A0AF9F81212B08F288E278D268C25E7
:1008D000AF3CAE3BAD3AAC39E47B767A02F9F8D363
:1008E00012134250067F01C00780047F00C007E456
:1008F0007F147E05FDFCAB3CAA3BA93AA839C31284
:10090000134250047E0180027E00D0E05E603BE432
:100910007F0AFEFDFCAB3CAA3BA93AA8391212257E
:10092000C374D09FFF74CF9EFEE49DFDE49CFCE465
:100930007B0AFAF9F8121225E47B3C7A05F9F812E1
:1009400012B08F288E278D268C25AF3CAE3BAD3A5A
:10095000AC39E47B367A01F9F8D312134250067FA2
:1009600001C00780047F00C007E47F767E02FDFCA3
:10097000AB3CAA3BA93AA839C312134250047E01EA
:1009800080027E00D0E05E603BE47F0AFEFDFCABAF
:100990003CAA3BA93AA839121225C3741C9FFF74C4
:1009A000709EFEE49DFDE49CFCE47B0AFAF9F812DB
:1009B0001225E47B807A02F9F81212B08F288E2774
:1009C0008D268C25AF3CAE3BAD3AAC39E47BA0FA2A
:1009D000F9F8D312134250067F01C00780047F004C
:1009E000C007E47F367E01FDFCAB3CAA3BA93AA8D8
:1009F00039C312134250047E0180027E00D0E05EB3
:100A0000603BE47F0AFEFDFCAB3CAA3BA93AA83957
:100A1000121225C374FC9FFF743A9EFEE49DFDE410
:100A20009CFCE47B0AFAF9F8121225E47B2C7A018B
:100A3000F9F81212B08F288E278D268C25AF3CAE88
:100A40003BAD3AAC39E47B57FAF9F8D31213425074
:100A5000067F01C00780047F00C007E47FA0FEFD81
:100A6000FCAB3CAA3BA93AA839C312134250047EFE
:100A70000180027E00D0E05E603AE47F0AFEFDFC69
:100A8000AB3CAA3BA93AA839121225C374EA9FFFCE
:100A9000741F9EFEE49DFDE49CFCE47B0AFAF9F8D9
:100AA000121225E47B92FAF9F81212B08F288E27E1
:100AB0008D268C25AF3CAE3BAD3AAC39E47B31FAA8
:100AC000F9F8D312134250067F01C00780047F005B
:100AD000C007E47F57FEFDFCAB3CAA3BA93AA8390E
:100AE000C312134250047E0180027E00D0E05E609B
:100AF0003AE47F0AFEFDFCAB3CAA3BA93AA83912B6
:100B00001225C3743E9FFF74129EFEE49DFDE49C7B
:100B1000FCE47B0AFAF9F8121225E47B4CFAF9F8A6
:100B20001212B08F288E278D268C25AF3CAE3BADA0
:100B30003AAC39E47B1FFAF9F8D312134250067F1E
:100B400001C00780047F00C007E47F31FEFDFCABDD
:100B50003CAA3BA93AA839C312134250047E018033
:100B6000027E00D0E05E603AE47F0AFEFDFCAB3C12
:100B7000AA3BA93AA839121225C374A69FFF74098B
:100B80009EFEE49DFDE49CFCE47B0AFAF9F8121257
:100B900025E47B24FAF9F81212B08F288E278D26CF
:100BA0008C25AF3CAE3BAD3AAC39E47B14FAF9F896
:100BB000D312134250067F01C00780047F00C00794
:100BC000E47F1FFEFDFCAB3CAA3BA93AA839C31247
:100BD000134250047E0180027E00D0E05E603AE461
:100BE0007F0AFEFDFCAB3CAA3BA93AA839121225AC
:100BF000C3745E9FFF74069EFEE49DFDE49CFCE4CE
:100C00007B0AFAF9F8121225E47B16FAF9F81212A7
:100C1000B08F288E278D268C25AF3CAE3BAD3AACED
:100C200039E47B0DFAF9F8D312134250067F01C064
:100C30000780047F00C007E47F14FEFDFCAB3CAAE4
:100C40003BA93AA839C312134250047E0180027EA8
:100C500000D0E05E603AE47F0AFEFDFCAB3CAA3BBC
:100C6000A93AA839121225C374569FFF74049EFE38
:100C7000E49DFDE49CFCE47B0AFAF9F8121225E4F9
:100C80007B0EFAF9F81212B08F288E278D268C254C
:100C9000AF3CAE3BAD3AAC39E47B08FAF9F8D3127D
:100CA000134250067F01C00780047F00C007E47F25
:100CB0000DFEFDFCAB3CAA3BA93AA839C312134276
:100CC00050047E0180027E00D0E05E603AE47F64E2
:100CD000FEFDFCAB3CAA3BA93AA839121225C3740D
:100CE0003C9FFF741E9EFEE49DFDE49CFCE47B0A99
:100CF000FAF9F8121225E47B5CFAF9F81212B08FB7
:100D0000288E278D268C25AF3CAE3BAD3AAC39E41E
:100D10007B06FAF9F8D312134250067F01C0078010
:100D2000047F00C007E47F08FEFDFCAB3CAA3BA9A2
:100D30003AA839C312134250047E0180027E00D0CB
:100D4000E05E603AE47F64FEFDFCAB3CAA3BA93A5E
:100D5000A839121225C3741A9FFF74139EFEE49DD6
:100D6000FDE49CFCE47B0AFAF9F8121225E47B36D8
:100D7000FAF9F81212B08F288E278D268C25E47F81
:100D800006FEFDFCAB3CAA3BA93AA839C3121342AC
:100D90005034E47F0AFEFDFCA839121225C3748486
:100DA0009FFF74019EFEE49DFDE49CFCE47B0AFA37
:100DB000F9F8121225E47B04FAF9F81212B08F2820
:100DC0008E278D268C25300003020E86AE2BAF2C8D
:100DD0007C007D0A1211D0AB07EBD394195027C3C6
:100DE00074199FFFE49400FEEF25E0FFEE33FEE46C
:100DF000FCFDE5282FF528E5273EF527ED3526F5FE
:100E000026EC3525F525EBD3942850047F0180028C
:100E10007F007419C39B50047E0180027E00EE5F48
:100E20006026EB24E7FFE434FFFEEF25E0FFEE331E
:100E3000FAC3E5289FF528E5279AF527E5269400CB
:100E4000F526E5259400F525E47FB67E03FDFCAB91
:100E500028AA27A926A825C3121342400BE4752807
:100E6000B6752703F526F525E47FC8FEFDFCAB2803
:100E7000AA27A926A825C3121342500AE47528C838
:060E8000F527F526F5251B
:010E86002249
:1015AC00EFD3940740057E047F0022E4F5BDF5BE21
:1015BC00EF4488F5BC00000000E5BC30E4FB53BCF4
:1015CC00EFAFBD7E00EF7802C333CE33CED8F9AD8A
:0615DC00BE2DFFE43EFEFF
:0115E20022E6
:10168600438E805389F0758A90758CE8C28DD28C12
:05169600D2A9D2AF2231
:100E87007F647E00121672759D0C7592301214DE07
:100E970012164D7BFF7A00790E7D097F01121359D7
:100EA7007A0679227F031215757A0679427D117FBA
:100EB700031215797F031213537BFF7A00791F7D85
:100EC700297F031213597A0679627F051215757AFD
:100ED7000679427D117F051215797F051213537B21
:100EE700FF7A0079217D017F071213591216863088
:100EF70001FDC201E4F50875F002E508A424C2F576
:100F070082E5F03406F583E493FA740193FBC39505
:100F170024EA95235004050880DD75F002E508A44E
:100F270024C0F582E5F03406F583E493FE7401935B
:100F3700FFC3E5249FFFE5239EFE7C007D0A121177
:100F4700BEEF2405FFE43EFE75F002E508A424C0C9
:100F5700F582E5F03406F583E493FC740193FDC351
:100F6700EB9DFDEA9CFC1211D0AC06AD07E50875B8
:100F7700F00AA4AEF02DF52CEE3CF52BD3E52C941E
:100F870090E52B94015003021016C2007470252CB3
:100F9700F52C74FE352BF52B752D20FEAF2C7C031D
:100FA7007DE81211D0EF2430F52EAE2BAF2C7C0349
:100FB7007DE81211D07E007F64CFCDCFCECCCE128C
:100FC70011D0EF2430F52FAE2BAF2C7C007D6412AF
:100FD70011D07E007F0ACFCDCFCECCCE1211D0EF6D
:100FE7002430F53075312EAE2BAF2C7C007D0A12E4
:100FF70011D0ED2430F53275332075342075352046
:10100700753620E52E64306003021098021095D2E1
:1010170000C3749A952CF52C7401952BF52B752D1F
:101027002DFEAF2C7C037DE81211D0EF2430F52E76
:10103700AE2BAF2C7C037DE81211D07E007F64CFEE
:10104700CDCFCECCCE1211D0EF2430F52FAE2BAFB3
:101057002C7C007D641211D07E007F0ACFCDCFCECD
:10106700CCCE1211D0EF2430F53075312EAE2BAF28
:101077002C7C007D0A1211D0ED2430F53275332017
:10108700753420753520753620E52EB43003752E5E
:10109700207B007A00792D7D297F051213597BFF6C
:1010A7007A0679827D617F05121579AE29AF2AAB61
:1010B70007AA06E4F9F8FF7EE07D1C7C03121531D0
:1010C700EF24C8FFEE3438FEED34FFFDEC34FF8F1C
:1010D7003C8E3B8D3AF5391207F0752D20E47BE8FD
:1010E7007A03F9F8AF28AE27AD26AC251212B0ACBB
:1010F70000AD01AE02AF03E47B64FAF9F81212B057
:10110700EF2430F52EE47B64FAF9F8AF28AE27AD6B
:1011170026AC251212B0AC00AD01AE02AF03E47BE2
:101127000AFAF9F81212B0EF2430F52F75302EE4D1
:101137007B0AFAF9F8AF28AE27AD26AC251212B014
:10114700EB2430F531753220753320753420753531
:10115700207536207B007A00792D7D317F031213AD
:10116700597BFF7A0679A27D617F03121579020EFA
:01117700F681
:03000B0002146C70
:10146C00C0E0C0D075D000C000C005C006C00730B9
:10147C009506C295D2948004D295C2940538E5386D
:10148C0070020537C394D0E5379407403830953552
:10149C007F021215AC7F021215AC7F021215ACC381
:1014AC0074FF9FF52474039EF5237F031215AC7F04
:1014BC00031215AC7F031215AC8E298F2A753700D9
:1014CC00753800D201D007D006D005D000D0D0D0CE
:0214DC00E032FC
:1013EC00020E87E493A3F8E493A34003F68001F282
:1013FC0008DFF48029E493A3F85407240CC8C33302
:10140C00C4540F4420C8834004F456800146F6DFD0
:10141C00E4800B010204081020408090169BE47EAF
:10142C00019360BCA3FF543F30E509541FFEE493C5
:10143C00A360010ECF54C025E060A840B8E493A38C
:10144C00FAE493A3F8E493A3C8C582C8CAC583CAB7
:10145C00F0A3C8C582C8CAC583CADFE9DEE780BE6F
:0116AF00003A
:10117800BB010689828A83E0225002E722BBFE0275
:09118800E32289828A83E49322A8
:10119100BB010CE58229F582E5833AF583E0225013
:1011A10006E92582F8E622BBFE06E92582F8E2225D
:0D11B100E58229F582E5833AF583E4932277
:1011BE00EF8DF0A4A8F0CF8CF0A428CE8DF0A42E45
:0211CE00FE22FF
:1011D000BC000BBE0029EF8DF084FFADF022E4CC03
:1011E000F875F008EF2FFFEE33FEEC33FCEE9DECCC
:1011F000984005FCEE9DFE0FD5F0E9E4CEFD22ED12
:10120000F8F5F0EE8420D21CFEADF075F008EF2F5B
:10121000FFED33FD4007985006D5F0F222C398FD4C
:051220000FD5F0EA22E9
:10122500E88FF0A4CC8BF0A42CFCE98EF0A42CFC68
:101235008AF0EDA42CFCEA8EF0A4CDA8F08BF0A4E6
:101245002DCC3825F0FDE98FF0A42CCD35F0FCEB45
:101255008EF0A4FEA9F0EB8FF0A4CFC5F02ECD390A
:0F126500FEE43CFCEAA42DCE35F0FDE43CFC2277
:1012740075F008758200EF2FFFEE33FECD33CDCC31
:1012840033CCC58233C5829BED9AEC99E5829840B4
:101294000CF582EE9BFEED9AFDEC99FC0FD5F0D691
:1012A400E4CEFBE4CDFAE4CCF9A88222B800C1B9BB
:1012B4000059BA002DEC8BF084CFCECDFCE5F0CBF9
:1012C400F97818EF2FFFEE33FEED33FDEC33FCEB32
:1012D40033FB10D703994004EB99FB0FD8E5E4F9ED
:1012E400FA227818EF2FFFEE33FEED33FDEC33FCDA
:1012F400C933C910D7059BE99A4007EC9BFCE99ACE
:10130400F90FD8E0E4C9FAE4CCFB2275F010EF2F12
:10131400FFEE33FEED33FDCC33CCC833C810D70712
:101324009BEC9AE899400AED9BFDEC9AFCE899F84D
:0E1334000FD5F0DAE4CDFBE4CCFAE4C8F922E0
:10153100C2D5E830E70FB2D5E4C39BFBE49AFAE4E5
:1015410099F9E498F8EC30E717B2D5121567121241
:10155100B0E4C39BFBE49AFAE499F9E498F88003B8
:101561001212B030D50DE4C39FFFE49EFEE49DFD51
:04157100E49CFC22D8
:10134200EB9FF5F0EA9E42F0E99D42F0E89C45F001
:011352002278
:00000001FF
