:0300000002099959
:0C099900787FE4F6D8FD7581200209E0AB
:10000300435243204572726F72202020202020200B
:10001300002020202044485431325F4949432020A6
:1000230020003A0020002020202020202020202013
:1000330020202020202000000000000000000000FD
:1000430000000000000000000038FCFC3800000045
:1000530000000D0D000000000E1E00001E0E00002B
:100063000000000000000020F8F820F8F82000024B
:100073000F0F020F0F0200387C444747CC9800064D
:100083000C0838380F070030300080C06030000C97
:10009300060301000C0C0080D87CE4BCD8400007A8
:1000A3000F0808070F080000101E0E0000000000D4
:1000B300000000000000000000F0F80C0400000045
:1000C3000003070C0800000000040CF8F000000017
:1000D30000080C0703000080A0E0C0C0E0A080007F
:1000E30002030101030200008080E0E08080000041
:1000F30000000303000000000000000000000000F7
:1001030000101E0E00000080808080808080000030
:1001130000000000000000000000000000000000DC
:1001230000000C0C00000000000080C06030000CD8
:1001330006030100000000F8F80CC40CF8F00003FB
:10014300070C080C070300001018FCFC000000005B
:1001530008080F0F080800080C84C4643C18000E3C
:100163000F0908080C0C00080C444444FCB80004B4
:100173000C0808080F0700C0E0B098FCFC800000E2
:100183000000080F0F08007C7C444444C48400042E
:100193000C0808080F0700F0F84C4444C08000071F
:1001A3000F0808080F07000C0C0484C47C3C0000F3
:1001B300000F0F00000000B8FC444444FCB80007E3
:1001C3000F0808080F0700387C444444FCF800007B
:1001D3000808080C0703000000003030000000008E
:1001E30000000606000000000000303000000000A0
:1001F30000080E060000000080C0603018080000F0
:10020300000103060C08000020202020202000000D
:10021300010101010101000008183060C0800000E5
:10022300080C0603010000181C04C4E43C18000079
:1002330000000D0D000000F0F008C8C8F8F000073A
:100243000F080B0B0B0100E0F0988C98F0E0000F07
:100253000F0000000F0F0004FCFC4444FCB800082E
:100263000F0F08080F0700F0F80C04040C18000324
:10027300070C08080C060004FCFC040CF8F000084A
:100283000F0F080C07030004FCFC44E40C1C0008DB
:100293000F0F08080C0E0004FCFC44E40C1C0008BF
:1002A3000F0F0800000000F0F80C84848C98000302
:1002B300070C0808070F00FCFC404040FCFC000F43
:1002C3000F0000000F0F00000004FCFC04000000FE
:1002D30000080F0F08000000000004FCFC040007E6
:1002E3000F08080F07000004FCFCC0E03C1C0008DA
:1002F3000F0F00010F0E0004FCFC040000000008B7
:100303000F0F08080C0E00FCFC387038FCFC000FC3
:100313000F0000000F0F00FCFC3870E0FCFC000F26
:100323000F0000000F0F00F8FC040404FCF80007A2
:100333000F0808080F070004FCFC44447C3800083D
:100343000F0F0800000000F8FC040404FCF8000789
:100353000F080E3C3F270004FCFC44C4FC38000893
:100363000F0F00000F0F00183C6444C49C180006D4
:100373000E0808080F0700001C0CFCFC0C1C0000F6
:1003830000080F0F080000FCFC000000FCFC000745
:100393000F0808080F0700FCFC000000FCFC00012C
:1003A30003060C06030100FCFC000000FCFC000734
:1003B3000F0E030E0F07000C3CF0E0F03C0C000C9A
:1003C3000F0301030F0C00000C7CC0C07C3C000039
:1003D30000080F0F0800001C0C84C4643C1C000EB2
:1003E3000F0908080C0E000000FCFC0404000000C8
:1003F300000F0F080800003870E0C0800000000004
:1004030000000103070E0000000404FCFC000000D0
:100413000008080F0F0000080C0603060C08000074
:1004230000000000000000000000000000000020A9
:1004330020202020202020000003070400000000CB
:100443000000000000000000A0A0A0E0C000000722
:100453000F0808070F080004FCFC2060C0800000A0
:100463000F0F08080F0700C0E0202020604000079E
:100473000F0808080C040080C06024FCFC0000077F
:100483000F0808070F0800C0E0A0A0A0E0C0000705
:100493000F0808080C040040F8FC440C180000087E
:1004A3000F0F0800000000C0E02020C0E02000275C
:1004B3006F48487F3F000004FCFC4020E0C0000878
:1004C3000F0F00000F0F00000020ECEC00000000F5
:1004D30000080F0F0800000000000020ECEC0000F3
:1004E300307040407F3F0004FCFC80C06020000867
:1004F3000F0F01030E0C00000004FCFC00000000C1
:1005030000080F0F080000E0E060C060E0C0000FCB
:100513000F0007000F0F0020E0C02020E0C0000004
:100523000F0F00000F0F00C0E0202020E0C00007E5
:100533000F0808080F070020E0C02020E0C000409B
:100543007F7F48080F0700C0E02020C0E02000079D
:100553000F08487F7F400020E0C06020E0C0000813
:100563000F0F080000000040E0A0202060400004BE
:100573000C09090B0E04002020F8FC2020000000C9
:1005830000070F080C0400E0E00000E0E0000007B3
:100593000F0808070F080000E0E00000E0E000009B
:1005A30003070C0C070300E0E0008000E0E0000715
:1005B3000F0C070C0F07002060C080C060200008EC
:1005C3000C0703070C0800E0E0000000E0E0004730
:1005D3004F4848683F1F00606020A0E06020000C87
:1005E3000E0B09080C0C00004040F8BC040400008A
:1005F3000000070F080800000000BCBC000000005A
:1006030000000F0F000000000404BCF8404000008D
:1006130008080F07000000080C040C080C04000075
:10062300000000000000001060028C00FE92929215
:10063300929292FE00000004047E014448507F40E1
:10064300407F50484440000000FC242424FC25261D
:1006530024FC242424040040308F80844C55252519
:1006630025554C808080001060028C0000FE929221
:10067300929292FE00000004047E01407E42427E7C
:10068300427E42427E4000060909E6F80C0402025B
:10069300020202041E0000000000071F3020404039
:1006A3004040402010000000007C82827C0080409B
:1006B3002010080402000000201008040201003E7C
:0706C30041413E0000000070
:020CD000C10061
:080CBB007F0C7EA9DEFEDFFCC8
:010CC300220E
:070C6A00120BBC7F017E00AC
:100C7100AD07AC06ED1DAE0470011C4E6005120CF3
:040C8100BB80F12221
:0D0CA400AE071FEE60060000000080F42285
:090C8500C293C295120C8ED293A9
:060C8E0000007F1BDFFEE9
:010C9400223D
:100BBC00C2B3C2B7E4FEC290EF30E704D291800218
:100BCC00C291D2907D01EF7801088002C333D8FC2A
:050BDC00FF0EBE08E160
:010BE10022F1
:100BE200C2B3D2B7E4FEC290EF30E704D2918002E2
:100BF200C291D2907D01EF7801088002C333D8FC04
:050C0200FF0EBE08E139
:010C070022CA
:100AAE00C2B3C2B67F027E00120C71D2B67F0A7E2E
:100ABE0000120C717FE2120C6A7F2C120BBC7F2E7F
:100ACE00120BBC7F2F120C6A7F23120BBC7F81127C
:100ADE000BBC7F28120BBC7FA2120BBC7FC8120B63
:100AEE00BC7FA0120BBC7F40120BBC7FAF120BBCA5
:030AFE00D2B3224E
:100C2E00AC05C2B31C1FEF24B0FF120BBCECC454B6
:0E0C3E000F2410FF120BBCEC540FFF020BBC76
:100C4C00C2B3E4FBEB04FF7D01120C2EE4FCE4FFC9
:0D0C5C00120BE20CBC84F70BBB09E9D2B30C
:010C69002268
:040B01007BFF7F03F4
:040B05008F188D199F
:100B0900C2B3E4F51AE518251AFFAD19120C2EE443
:100B1900FC120871FF120BE2740129F9E43AFA0C8C
:0E0B2900BC10EE051AE51AC3940240D9D2B3EF
:010B3700229B
:06090C007BFF7D017F0767
:0A0912008F188D198B1A8A1B891C9F
:10091C00E4F51DC2B3AB1AAA1BA91C851D827583F5
:10092C000012088AFFD394004062EF94204059EFE4
:10093C00D3947E5053EF24E0F9E4FBE5182BFFAD84
:10094C0019120C2EE4FCEB75F008A4FFEC75830077
:10095C002FFFE58335F0FE75F010E9A4243AF582FB
:10096C00E5F03400F583E5822FF582E5833EF583CF
:10097C00E493FF120BE20CBC08CC0BBB02BD051DB3
:0C098C0074082519F519808D051D80895F
:01099800223C
:0F0C9500D295D293120C8EC295120C8EC293225E
:060CC400120C85D29522FE
:030B6900120B94D8
:100B6C00E4FDC293D295120C893095140DEDD394FB
:100B7C00FA4006120CC47F01227F01120CA480E9FA
:070B8C00C293120C8E7F00E2
:010B9300223F
:060CCA00120C85C293220A
:0A0CB100C293D295120C89C293225F
:020B9400AE07AA
:100B9600C293E4FDC293EE5480FFC41313135401B1
:100BA6006004D2958002C295EE25E0FE120C890DF6
:050BB600BD08E1C2933F
:010BBB002217
:020C0800AE0735
:100C0A00E4FDFCC293120C89ED25E0FD3095010D3F
:100C1A000CBC08EFC293EE7005120CB18003120CE3
:030C2A00CAAF0549
:010C2D0022A4
:040B3800AC05AB0756
:100B3C00120C957FB8120B69AF03120B69120CC41F
:100B4C00120C957FB9120B94120B6CAF04120C089B
:0C0B5C00AD07120CC47FE8120CA4AF051A
:010B6800226A
:1006CA00E4FDFF120B388F16E4FD7F01120B388F01
:1006DA0017E4FD7F02120B38A907E4FD7F03120B12
:1006EA0038AA07E4FD7F04120B38E5162517292AD4
:1006FA006F6003020869E51675F00AA4AEF07C0083
:10070A002517F509EC3EF508EA30E710D200E9753D
:10071A00F00AA4FFAEF0EA547F2F800CC200E975FC
:10072A00F00AA4AEF07C002AF50BEC3EF50AD3E5FC
:10073A000994B6E508940340067508037509B6C31B
:10074A00E50994C8E508940050067508007509C8BB
:10075A00D3E50B9458E50A94024009200006750A6D
:10076A0002750B58D3E50B94C8E50A94004009308A
:10077A000006750A00750BC8750C20AE08AF097C17
:10078A00037DE81208B77E007F64CFCDCFCECCCEF2
:10079A001208B7EF2430F50DAE08AF097C007D646E
:1007AA001208B77E007F0ACFCDCFCECCCE1208B7C3
:1007BA00EF2430F50E750F2EAE08AF097C007D0AC6
:1007CA001208B7ED2430F510751120751220751333
:1007DA00207514207515207B007A00790C7D317FF5
:1007EA00031209127A0679AA7D61120B01300005FB
:1007FA00750C2D8003750C20AE0AAF0B7C037DE8C7
:10080A001208B77E007F64CFCDCFCECCCE1208B708
:10081A00EF2430F50DAE0AAF0B7C007D641208B7E9
:10082A007E007F0ACFCDCFCECCCE1208B7EF2430D0
:10083A00F50E750F2EAE0AAF0B7C007D0A1208B7B3
:10084A00ED2430F5107B007A00790C7D317F05129A
:10085A0009127BFF7A06798A7D617F05020B057A88
:06086A0000790312090CE5
:010870002265
:100A25007FC87E00120C71120AAE120C4C7BFF7A45
:100A35000079147D017F011209127A06792A7D0158
:100A4500120B017A06794A7D117F03120B057A0094
:100A550079257D217F031209127BFF7A0079277D95
:100A6500297F031209127BFF7A06796A7D017F05CA
:100A7500120B057A06794A7D117F05120B057A005E
:100A850079257D217F051209127BFF7A0079277D63
:100A9500297F051209127A00792912090C7FE87E4F
:090AA50003120C711206CA80F460
:1009A500020A25E493A3F8E493A34003F68001F239
:1009B50008DFF48029E493A3F85407240CC8C33353
:1009C500C4540F4420C8834004F456800146F6DF22
:1009D500E4800B0102040810204080900CD0E47ED6
:1009E500019360BCA3FF543F30E509541FFEE49317
:1009F500A360010ECF54C025E060A840B8E493A3DE
:100A0500FAE493A3F8E493A3C8C582C8CAC583CA08
:100A1500F0A3C8C582C8CAC583CADFE9DEE780BEC0
:010CD2000021
:10087100BB010689828A83E0225002E722BBFE0285
:09088100E32289828A83E49322B8
:10088A00BB010CE58229F582E5833AF583E0225023
:10089A0006E92582F8E622BBFE06E92582F8E2226D
:0D08AA00E58229F582E5833AF583E4932287
:1008B700BC000BBE0029EF8DF084FFADF022E4CC25
:1008C700F875F008EF2FFFEE33FEEC33FCEE9DECEE
:1008D700984005FCEE9DFE0FD5F0E9E4CEFD22ED34
:1008E700F8F5F0EE8420D21CFEADF075F008EF2F7E
:1008F700FFED33FD4007985006D5F0F222C398FD6F
:050907000FD5F0EA220B
:00000001FF
