:020000040800F2
:10000000005000203D020008450200084702000899
:10001000490200084B0200084D02000800000000E1
:100020000000000000000000000000004F02000877
:1000300051020008000000005302000855020008A9
:10004000570200085702000857020008570200082C
:10005000570200085702000857020008570200081C
:10006000570200085702000857020008570200080C
:1000700057020008570200085702000857020008FC
:10008000570200085702000857020008C14E000836
:10009000CD4E000857020008A92C0008570200089E
:1000A00057020008570200085702000857020008CC
:1000B00057020008570200085702000857020008BC
:1000C00057020008570200085702000857020008AC
:1000D000570200085702000857020008570200089C
:1000E00057020008570200085702000800F002F803
:1000F00000F096F80AA090E8000C82448344AAF12C
:100100000107DA4501D100F08BF8AFF2090EBAE829
:100110000F0013F0010F18BFFB1A43F0010318473B
:100120000491000024910000103A24BF78C878C1DF
:10013000FAD8520724BF30C830C144BF04680C60ED
:10014000704700000023002400250026103A28BF35
:1001500078C1FBD8520728BF30C148BF0B60704739
:100160006E2900F02986702900F04981662908F07F
:10017000AC83652908F0A983672908F0A683612963
:1001800008F0A58303681B0A28BF41F08001692994
:1001900000F0D685642900F0D385752900F0D0855C
:1001A0006F2900F01287782900F01581E92900F005
:1001B000AD86E42900F0AA86F52900F0A786EF298C
:1001C00000F00F87F82900F014810368DB0928BFCD
:1001D00041F08001632901F0FD85732901F0028659
:1001E000E32901F00D86F32901F012860020704703
:1001F0001FB59DE8030000F0B1FC02F069F80400AF
:100200000020002108F016F8401C6060002000214A
:1002100007F0FAFFE06001F03BF900F05FFC1FBD62
:1002200005F02CFF114603B405F038FF03BCFFF7BF
:10023000DFFF02F02FFD06F035FA00000648804788
:1002400006480047FEE7FEE7FEE7FEE7FEE7FEE7BB
:10025000FEE7FEE7FEE7FEE73D4C0008ED00000884
:10026000004870471045002070B5064600F05AFC63
:10027000056806F10B0020F00704B4429CBF002083
:1002800070BD2B466A68BAB11068A04210D304F161
:10029000080188423CBF5068586007D35168101964
:1002A00041601168091B016058601460101D70BD29
:1002B00013465268002AE7D12146284600F03AFC4E
:1002C0000028DED170BD70B50446051F00F02AFC81
:1002D0000068002C14BF446870BD002C18BFAC42ED
:1002E0003CBF20466468F8D301680A18AA4218BFC8
:1002F000456003D12A680546114401602868411908
:10030000A1421CBF6C6070BD6168696021680844CF
:10031000286070BD7CB51D4616460C00009001D0CB
:100320002044401E074B7B442A46694601903046D4
:1003300000F05BFD05461CB10020694600F068FD39
:1003400028467CBDF10A00000B460146184600F025
:100350006DBD00000FB41CB5084B06AA7B4469466E
:100360000090059800F041FD04460020694600F029
:100370004FFD20461CBC5DF814FB0000B10A0000D4
:10038000F0B40D460188090502D5214C7C4402E0F9
:100390001F4C7C440E34002100F1240608E002F0DA
:1003A0000F071209E75D42EA03721B097754491CE3
:1003B00052EA0307F3D102780023120704D5702D07
:1003C00006D009B1022311342246F0BC00F05EBC15
:1003D00001231034F8E770B504460D462146106835
:1003E00000F022FC024629462046BDE8704000236A
:1003F000C6E7D21D22F00703D3E90023C0E7036854
:10040000126843F0200303600823C3610023B7E7A9
:10041000288900002DE9F05F894604464FF0000A64
:10042000DFF874B1FB44C0F820A02046E16888479B
:10043000002874D0252806D0D4E901219047206AED
:10044000401C2062F1E700265F462046E1688847AD
:100450002028054607DB312D05D2781910F8200C2D
:1004600008B10643F1E7B00701D526F00406C4F849
:100470001CA00027C4F818A02A2D09D0284605F092
:1004800005FE38B304EB8708303DC8F8185019E072
:1004900059F8041B204604EB87029161E168884704
:1004A000012F054618D1E069002820DA26F0200641
:1004B0001DE0D8F8180000EB800005EB4000303854
:1004C000C8F818002046E1688847054605F0DEFDBB
:1004D0000028EED1012F0AD02E2D08D12046E16848
:1004E00088477F1C0546022F46F02006C4DBA06922
:1004F000002803DA404246F00106A061F00701D06F
:1005000026F010066C2D0BD0682D09D04C2D39D05B
:100510006A2D35D0742D35D07A2D33D016E038E0E1
:10052000E1682F4620468847B842054609D16C2F1E
:1005300026D04FF48060E168064320468847054690
:1005400004E06C2F1AD04FF4807006430DB3A5F170
:100550004100192802D8203546F400664A4629464B
:10056000204626604E46FFF7FBFD80B101280BD0E8
:10057000F61D26F0070000F1080956E74020E4E7E1
:100580008020D8E70020D6E706F104094DE7284689
:1005900052E7206ABDE8F09FB88800000FB400B5AC
:1005A0008DB010A9099000910B904FF0FF300A9088
:1005B00000200C90064878440690064878446A4625
:1005C00007900F9909A800F02BFD0DB05DF814FB02
:1005D000870A00009F0A00002DE9FF5F1D464FF0CB
:1005E000FF3B91464FF000085F46D5E90146A969F7
:1005F00001987F1C8847296A824688470028F6D1DF
:10060000BAF1FF3F0CD0002E24F4C06419DD60065F
:1006100014D5BAF12B0F09D0BAF12D0F0ED103E08A
:10062000584604B0BDE8F09F44F48064A96901987D
:100630007F1C8847761E8246002E02DDBAF1300FFD
:1006400003D0B9F1000F26D032E0A969761E0198D7
:100650007F1C44F400748847002E824605DDBAF101
:10066000780F06D0BAF1580F03D0B9F1000F10D0AF
:100670001EE0B9F1000F02D0B9F1100F18D1A9692D
:10068000761E01987F1C24F400748847824610204F
:1006900002E0082000E00A20814609E0A96908FB81
:1006A0000908761E01987F1C44F40074884782462E
:1006B000002E05DD4946504600F09EFC0028EDDA8C
:1006C000E96901988847A00502D46FF00100A8E706
:1006D000E00725D1600613D5600502D5C8F10000FA
:1006E00000E0404629680A1D2A600968220501D5F4
:1006F000087015E0220701D5088011E008600FE0BE
:100700002868011D29600068210502D580F8008055
:1007100006E0210702D5A0F8008001E0C0F80080C3
:1007200038467EE770B50446C068810713D080065E
:1007300001D5A56A04E0A169606808442169451AE9
:10074000204600F061FE002206462946204600F0C1
:1007500087FD304670BD002070BD70B510B1BDE89A
:100760007040DFE70025074C6E1E07E02046FFF7CC
:10077000D9FF00B13546206D20F00104002CF5D1E1
:10078000284670BD144500202DE9F0410C4607466F
:100790001646104600F078F82078611C61280AD0CF
:1007A000722802D077283CD102E00125002405E020
:1007B0000225042402E0082448F2020511F8010B86
:1007C0002B2806D0622809D011F8010C74280AD011
:1007D0000BE045F0030544F00204EFE745F00405A3
:1007E00044F00104EAE744F010043846214605F0DD
:1007F000CFFC411C15D00021316171604FF40071B4
:10080000F560F1617061200704D5304602220021B5
:1008100000F026FD306D40F0010030653046BDE847
:10082000F0810020FBE72DE9F0410D460646104C13
:10083000206DC10704D0410804D020F00104F7E77F
:1008400022460EE05420FFF70FFD07000ED0206D6A
:1008500047F00101084354212065384600F0D6F8DE
:100860003A4629463046BDE8F0418DE70020D6E7FC
:100870001445002011B14FF4807201E04FF4806202
:100880004FF4007300F068BD2DE9F04704464FF0C7
:1008900000094FF0FF37C568D4E90486A80707D0E0
:1008A000204600F0B1FD304605F006FC002802DAD3
:1008B0003846BDE8F087280502D54046FFF703FD1E
:1008C0004C21204600F0A2F8206D20F001002065A8
:1008D0004846EEE710B5431C02E010F8011B71B169
:1008E0008107FAD14FF0013202C88C1A8C4314EA06
:1008F000C211F9D0C01A0A0603D0C01E10BDC01A1A
:1009000010BD0A0401D0801E10BD0902FCD0401E9B
:1009100010BD40EA010370B59B072ED14FF00136A0
:10092000042A2AD308C810C99D1B9D43121F15EA2B
:10093000C61517D0D8B2E1B2401A50EA056110D1FD
:1009400098B2A1B2401A50EA05410AD123F07F4083
:1009500024F07F41401A50EA052102D1180EA0EB85
:10096000146070BDA342DBD018BA21BA884201D905
:10097000012070BD4FF0FF3070BD0AB9002070BD7E
:1009800010F8013B11F8014B63B1A3420AD1521E8A
:1009900008D010F8013B11F8014B1BB1A34201D163
:1009A000521EEDD1181B70BD10B5203AC0F00B805F
:1009B000B1E81850203AA0E81850B1E81850A0E863
:1009C0001850BFF4F5AF5FEA027C24BFB1E81850BD
:1009D000A0E8185044BF18C918C0BDE810405FEA2D
:1009E000827C24BF51F8043B40F8043B08BF7047A9
:1009F000D20728BF31F8023B48BF11F8012B28BFAE
:100A000020F8023B48BF00F8012B70474FF000026E
:100A100000B5134694469646203922BFA0E80C50F4
:100A2000A0E80C50B1F12001BFF4F7AF090728BFCF
:100A3000A0E80C5048BF0CC05DF804EB890028BF4B
:100A400040F8042B08BF704748BF20F8022B11F074
:100A5000804F18BF00F8012B704700004FF0013C99
:100A600050F8042B51F8043B9A4221D1A2EB0C031D
:100A7000934313EACC1317D150F8042B51F8043BDD
:100A80009A4215D1A2EB0C03934313EACC130BD17A
:100A900050F8042B51F8043B9A4209D1A2EB0C0305
:100AA000934313EACC13DBD04FF00000704700BF34
:100AB000D01A01BAB1FA81F101F0180122FA01F05D
:100AC000CB40C1F12001DBB2C0B2C01A2CFA01F355
:100AD000D11A914311EAC311E6D1704770B5064CA3
:100AE0007C44064D7D4403E0206820448047241D5B
:100AF000AC42F9D170BD00008C88000090880000E5
:100B00002DE9F04117460E46054633B107FB035465
:100B1000E41B2046B047A542FAD1A5F10800BDE884
:100B2000F081000000487047104600207047704771
:100B30007047704738B504460A460020694601F000
:100B40009CFB002808BF38BD02460099204600F0F3
:100B500042FD012038BD012001F065BBF8B501F070
:100B600081FB054600200C46102000BF0646A81950
:100B7000A0420DD932466946002001F07EFB0700F5
:100B800008BF01F050FB0098A04218BF0546C419E9
:100B9000FFF7C8FF05600746F01D20F00700461963
:100BA000284600F00AF8B44208BFF8BDA21B31463F
:100BB0003868BDE8F84000F00EBD00210160C0E9D2
:100BC000011070471020704770B5044685690068B1
:100BD000C10601D5302600E02026C00707D070BD31
:100BE000D4E9012130469047206A401C20626D1EE6
:100BF000F6D570BD70B5044685690078C00707D189
:100C000070BDD4E9012120209047206A401C206259
:100C10006D1EF6D570BD09684A0501D540B2704712
:100C2000C905FCD500B2704709684A0501D5C0B2B4
:100C30007047C905FCD580B2704770B50C460546B3
:100C4000012A05D02878800600D5EA69002302E051
:100C5000012305E05B1C934202D2E05C0028F9D13D
:100C6000A869E618C01AA861286A184428622846AC
:100C7000FFF7AAFF04E0D5E9012114F8010B904722
:100C8000B442F8D32846FFF7B5FF70BD2DE9F04711
:100C90000D4699469246044600F1240801688806EC
:100CA00004D5E06921F01001216000E00120A84294
:100CB00001DD471B00E00027A1697A1902EB09005A
:100CC000081AA0612078C00602D42046FFF77CFFF6
:100CD000002608E0D4E901211AF806009047206AAE
:100CE000401C761C20624E45F4DB2078C0060AD5F5
:100CF0002046FFF769FF06E0D4E901213020904744
:100D0000206A401C2062381EA7F10107F4DC07E0CE
:100D1000D4E9012118F805009047206A401C2062A0
:100D2000281EA5F10105F3DC2046FFF763FF2078BC
:100D3000000602D50220BDE8F0870120FBE7000095
:100D40002DE9F0410646002410687529314616A5A4
:100D500010D0FFF760FF002802DA404213A507E039
:100D600031688A0701D512A502E0490704D511A50B
:100D7000012401E0FFF758FF00210A2206F12407B1
:100D800009E0B0FBF2FCB0FBF2F302FB1C003030D8
:100D900078541846491C0028F3D123462A46304689
:100DA000BDE8F041FFF772BF000000002D00000019
:100DB0002B0000002000000011680268006A530543
:100DC00001D508700AE0D30501D5088006E01306B6
:100DD00003D5C217C1E9000200E008600120704796
:100DE00001694A1C02610878704700B58FB0CDE9EF
:100DF00001310021059105497944CDE903101146DF
:100E00006846FFF707FB0FB000BD0000E5FFFFFFDE
:100E10000A6802F8010B0A607047D1E900239A4280
:100E200002D2531C0B60107070470000074B70B566
:100E30000D467B44FFF7D9FF0446284600F020F911
:100E400010B14FF0FF3070BD204670BD8F580000CC
:100E50002DE9FF5F15468A460446DFF8AC80F8446A
:100E60000027D8E900103E46CDE9001010E03AF81E
:100E700016106A4602A801F0AAF9411C07D0217891
:100E8000890603D5E269391891420DD80744761CCA
:100E90002078800602D5E069B84205DDAE42E6DB87
:100EA0003AF816000028E2D1A069C01BA0612046D4
:100EB000FFF78AFED8E90010CDE90010002017E006
:100EC0003AF818106A4602A801F081F9B0F1FF3F24
:100ED00081460BD000250DF1080B05E0D4E9012176
:100EE0001BF8050090476D1C4D45F7D308F1010034
:100EF000B0428046E4DB206A384420622046FFF797
:100F000079FEBDE8FF9F0000927E00002DE9F041D0
:100F10008046D21D22F007020025D2E90002F52901
:100F200015A614D0011E72F1000106DA0023D0EBE1
:100F3000030063EB020211A608E0D8F800108B074B
:100F400001D50FA602E0490701D50EA601251146DD
:100F5000002408F1240704E000F057FB30323A5532
:100F6000641C50EA0102F7D12B4632462146404626
:100F7000BDE8F041FFF78ABE000000002D00000030
:100F80002B0000002000000030B4002100F12404F8
:100F900008E002F00705D208303542EA4372DB0868
:100FA0006554491C52EA0305F3D10468002310A2DA
:100FB000250707D5A40600D421B1C46901230DA2D9
:100FC000641EC46130BCFFF761BE10B50446214603
:100FD0001068FFF729FE02462046BDE810400023B6
:100FE000D2E7D21D22F00701D1E90023CCE70000AF
:100FF00000000000300000003A2800D2303820F015
:101000002002412A01D3A2F13700884201D34FF0D8
:10101000FF3070470268114413780160184670472A
:10102000D160054979445161044979441162002134
:101030001161114600F0F0BEEDFFFFFF67060000F2
:10104000426842B1016811F8013B23B1521EC0E968
:101050000012184670470121C160881E704742681F
:101060005AB1C368016843B983688B4205D0491EF1
:10107000521CC0E90012002070474FF0FF3070474B
:10108000007B00F0800070472DE9F04705460C46D4
:10109000C86820F4201040F48000C860800602D5A3
:1010A000084600F0D4F9E06841F282014FF0FF39C0
:1010B0000140022903D0204600F072F9B5E000F4A7
:1010C0002041B1F5004F0FD1C00306D56168E06A39
:1010D000884200D80846606006E02069E0626060EF
:1010E000606905F00FF8A061A0680022EEB2002848
:1010F0000DDAE1688B050AD4C043A06041F490305A
:101100002260E0606068411C61600670A5E0E068F4
:101110009046226040F40050E060206968BB60693E
:1011200005F016F8012704F12405A0B1A08910F4F8
:10113000407F08D0E069FFF797F8206118B1E068B8
:1011400040F4006016E0E7612561E06820F440703B
:1011500040F480600EE0E069FFF786F80028206127
:10116000F1D0E06840F4006010F4407FE06002D10C
:1011700040F48070E06020696060E06825696FF08D
:10118000010AC1051FD56168E06A884200D8084697
:10119000411B04D02246284600F00CF9F0BBE06861
:1011A000010203D5E562C4E9015854E0691CE1621B
:1011B0006160E16940F48030491EC4E902103046A4
:1011C0002E70BDE8F087010202D500F480320AE0FB
:1011D0006068411C61600670E0680A2E40F480304F
:1011E000E06006D00022E16A6068814203D90B46C4
:1011F00002E00122F7E70346A7895B1B7F0503D4C2
:10120000E7699F4200DDE2B1814200D80146E56214
:101210000F1AC4E90158002B09DD00E005E0224661
:101220001946284600F0C6F808B14846C9E747B154
:10123000A069E5626560C01BA061E06840F0100035
:10124000E060E068000208D56168A069E562491BBA
:1012500008446560A0615046B3E73046B1E700003E
:101260002DE9F041044616460D464769007B80078C
:101270002ED0384604F06CFF50BB3EB3012E02D096
:10128000022E25D104E0204600F080FF05441DE039
:10129000384604F037FFE168002841F01001E160B2
:1012A00005DA204600F07CF80120BDE8F081C90392
:1012B0000BD56268E16A914200D81146A2691144D7
:1012C0002269891A814200DD08460544002D01DAB1
:1012D0000220EAE7E16A6068E268814206D291038F
:1012E000E06203D522F4003141F01002A669002724
:1012F000AE4213DCE16A814201D90B4600E00346AD
:1013000003EB060C2369ACEB030CAC4506DD814214
:1013100001D98C4600E084469C4505D1A760276032
:1013200042F02000A5620DE0AD1BE669AE1B8142D4
:10133000A66000D90846C01A281A206058196060B3
:1013400022F0200003490840E060002084F8487043
:10135000ABE70000BFCFD7FF70B5C468A50713D0B7
:10136000650211D4B2F5807F09D0B2F5007F06D0B6
:10137000B2F5806F08D1012300F1240106E05D1E63
:101380006FF07F46B54201D3012070BD0161C3619A
:10139000416024F470611143C160002070BD000001
:1013A000C16821F4001141F08001C1600021816019
:1013B000016070472DE9F047814614460E464FF014
:1013C000FF383248D5685769054209D03846A169C7
:1013D00004F0E8FF002811DB2C48C0430540E5601D
:1013E0002B4632464946384605F004F8A16920F0FC
:1013F0000042B21A11440028A16103D02046FFF731
:10140000CFFF4046BDE8F08770B504460569C06A65
:101410006168884200D80846E16821F42011E16043
:10142000C90312D5A84208D02246411B2846FFF71F
:10143000C1FF10B14FF0FF3070BD0020E562C4E97C
:101440000150E06820F48030E060002070BD10B5ED
:101450000446C06820F02000E060A16AA0698842CC
:101460000DD02046FFF7D0FFE06820F4405040F058
:101470001000E060A06AA0612069E062606044F250
:101480004001E0688843E06010BD000010000200E9
:1014900010B542485421FFF7B9FA41485421FFF7EB
:1014A000B5FA40485421FFF7B1FA3F493B483C4A5E
:1014B0003F4B08603D490A603A491960531C036577
:1014C000481C1065012008653B48344A39A178441E
:1014D000FFF75AF920B9384878440A3800F09CFEE2
:1014E00037482F4A35A17844FFF74EF920B93448E0
:1014F00078440A3800F090FE32482A4A2FA17844F6
:10150000FFF742F920B92F4878440A3800F084FEEA
:1015100040232248DC0000212246FFF71DFF20B1B6
:1015200025487844543800F077FE1D482246402371
:101530000021FFF711FF20B121487844543800F012
:101540006BFE1848224610230021FFF705FF0028F4
:1015500006D01C487844BDE81040563800F05CBE08
:1015600010BD104870B5006D20F001040B48FFF766
:101570008BF90B48FFF788F90A48FFF785F909E06E
:10158000206D20F001052046FFF77EF92046FEF78A
:101590009AFE2C46002CF3D170BD000014450020AB
:1015A00068450020BC45002054010020580100205F
:1015B0005C01002072000000F6740000770000005B
:1015C000E5740000D574000010B500F033FEBDE8EE
:1015D000104000F01CBE034640688C46002818BF2F
:1015E00088423CBF03464068F8D3186818448842D4
:1015F00007D00CF1030020F00700001D411A521A19
:101600000146081D0A60FEF75EBE30B5B0F10A0261
:101610004FEA900E71F100034EEA817EB0EB0E00AE
:1016200061EB91014FEA101E4EEA017E10EB0E00B5
:1016300041EB11114FEA102E4EEA016E10EB0E0035
:1016400041EB11214FEA104E4EEA014E10EB0E0015
:1016500041EB1141401841F100014FEAD00040EA4E
:1016600041704FEAD10110EB80054FEA810444EA52
:10167000907444EB01046D1944EB0404521BA34124
:101680004FF0000348BF0A3200D530BD401C41F185
:10169000000130BD10B5044600F012FE0068005D88
:1016A00000F0010010BD70472DE9FF4F0C461E46AB
:1016B0004FF0FF378BB0D2E90001DDF860800A906F
:1016C0008A46C1F30A5505B93D46002108464FF048
:1016D0000000BAF1000F00F4400005DA00EB8000D2
:1016E0004FF4400101EA50004FEA9059B9F1010F5F
:1016F00000DDB9460A9850EA4A000ED044F6105070
:10170000A5F2FF3545432F14B8F1000F1ED07542E6
:10171000291E1EDDC9F100021CE0B8F1010F4FF0D7
:10172000000001D0302103E0F24305E02154401CC9
:10173000B042FBDB30460022002121540B99C1F856
:101740000880C1E900200FB0BDE8F08FBD1B6D1C03
:10175000DEE74A4600DA694206A800F0FDFD06AB66
:1017600093E8070003AB83E8070050460A9900F0AE
:10177000C9FE8DE80700A0F500501F3800900398BF
:10178000002D0ADD42F21F014A460844002303A946
:101790000390684601F032F909E0A0F500504A468E
:1017A0001F38002303A90390684601F03CF98DE837
:1017B00007000004000C03D04FF0FF30410800E0A8
:1017C0001046B8F1000F03D00022009215461EE02B
:1017D000751E05D4FFF719FF303262556D1EF9D51D
:1017E000B3460122084302D000227F1C04E0207887
:1017F000302801D100227F1E002A099784D01DE0E5
:10180000112D07DAFFF701FF303262556D1C50EAE7
:101810000102F5D1084302D00098C8B10EE00021C2
:10182000681E05E0235C625C63542254401E491C20
:101830008142F7DBAB46A81B401E0990002004F84C
:101840000B000B98099AC0F80880C0E9002B7AE7D2
:1018500011264FF0000857E72DE9F04F884604465F
:10186000D21D22F0070191B0D1E90001CDE90A01B2
:1018700004F089FB02460B98C00F01D02D2007E031
:101880002068810701D52B2002E0202101EAC00059
:10189000032A099001D0072A05DB0346414620466A
:1018A00000F01AFD0BE12078800601D5E06900E028
:1018B0000620B8F1650F814606D0B8F1660F18D042
:1018C000B8F1670F70D131E00020B9F1110F00902D
:1018D00001DB112301E009F101030AAA01A90CA807
:1018E000FFF7E2FEDDE90C70002609F101058346F1
:1018F00047E001204B4600904FF000470AAA01A99B
:101900000CA8FFF7D1FEDDE90DB00C995D4600266D
:1019100010B909F101000D18B9EB050003D4C0F1AD
:10192000FF3609F10105A5EB09002BE0B9F1010F24
:1019300001DA4FF001090020B9F1110F009048467B
:1019400001DD112300E003460AAA01A90CA8FFF754
:10195000ABFEDDE90C704D4600268346207800077B
:101960000AD4AB4500DA5D4601A8012D04DD41191A
:1019700011F8011C302907D04F4502DA17F1040F86
:1019800004DA012082460FE06D1EEEE7002F02DC34
:10199000ED1B3E4403E0781CA84200DD7D1CB81B13
:1019A00000F1010A4FF000472078000703D4AA4550
:1019B00001DB4FF0FF3A0021B7F1004F0DF1430872
:1019C0008DF8431024D002202B23002F01DA7F4210
:1019D0002D230A21021EA0F1010000DC5FB197FB5C
:1019E000F1FC97FBF1F201FB1C7C17460CF1300C6B
:1019F00008F801CDEEE7A8F1010003702188090580
:101A000001D5452100E06521A0F1010800F8011C85
:101A100009980FA9A1EB0807FF1D00B1012041198A
:101A200001EBEA70A1693844081A401EA0612078D1
:101A3000C00602D42046FFF7C7F8099828B1D4E9B8
:101A400001219047206A401C20622078C00622D5E0
:101A50002046FFF7B9F81EE0002E04DBB34502DD97
:101A600001A8805D00E03020D4E901219047206A80
:101A7000401C2062761CAAF101005FEA000A0AD12C
:101A800000F026FCC0680168405CD4E90121904761
:101A9000206A401C2062281EA5F10105DCDC07E05D
:101AA000D4E9012118F8010B9047206A401C2062FC
:101AB000381EA7F10107F3DC2046FFF79BF803204F
:101AC00011B041E62DE9F04F04460D46D21D22F03B
:101AD000070089B0D0E900974846394604F053FA28
:101AE0000246F80F01D02D2307E02068810701D5B9
:101AF0002B2302E0202101EAC0038DF820300BB136
:101B0000012000E00020032A824601D0072A04DBDE
:101B10002946204600F0E0FB3FE12078800601D412
:101B20000D2500E0E569C7F30A560D2D49DA0021BD
:101B30004FEA175B08464FF00000002F00F440000A
:101B400007DA00EB80004FF4400100EBD07001EAAF
:101B500060008115012901DD4FF0FF3100224FEABD
:101B6000850CBCF1180F06D31346ACF118004FF0EA
:101B70008052C24003E04FF4801323FA0CF30CF1BF
:101B80000C0CBCF1200F04D3ACF1200C09FA0CF0C2
:101B900001E007FA0CF000294FF0004801DD18B908
:101BA0000FE00ED140450CD319EB02095F4121B97A
:101BB000404502D19F4329EA0209BBEB175F00D0E1
:101BC000761C2088000502D57B48784402E07A48DC
:101BD0007844193808AA302302F80A30037C0AF145
:101BE0000101002E0AF1020A53546A4602DC4FF04A
:101BF000300101E04FF031014FF001088DF8001085
:101C000002D0A6F2FF3603E059EA470100D06B4E3E
:101C1000002D02DC2178090704D54FF002082E219F
:101C20008DF80110C44600210BE0C7F303433F01C8
:101C3000C35C491C6D1E02F80830052908F1010833
:101C400001DA002DF1DC00210CE000EB1973491CD6
:101C50001B786D1E082902F808304FEA091908F1AF
:101C6000010801DA002DF0DC21688B0602D516E0B0
:101C7000A8F10108E04505DD02EB080313F8013C7B
:101C8000302BF5D0B8F1000F09DD02EB080313F893
:101C9000013C2E2B03D1090701D4A8F10108002D26
:101CA00005DD3E2102F808106D1E08F10108407C98
:101CB000002E02F8080008F1010804DA2D2076420F
:101CC00002F8080002E02B2002F808000A214FF475
:101CD0007A70864208F101080BDB96FBF0F3303393
:101CE00002F8083096FBF0F308F1010800FB1366D8
:101CF00001E0642E0CDB642096FBF0F3303302F835
:101D0000083096FBF0F308F1010800FB136601E0D0
:101D10000A2E06DB96FBF1F0303002F8080008F1DD
:101D2000010896FBF1F001FB1060303002F808006A
:101D3000A16908F1010808EB050202EB0A00081A84
:101D4000A0612078C00602D42046FEF73DFF216A3C
:101D500008AE01EB0A00206204E0D4E9012116F884
:101D6000010B9047BAF1010AF7D22078C00602D5DC
:101D70002046FEF729FF6E4609E016F8010B3E28C3
:101D80000FD0D4E901219047206A401C2062B8F1AD
:101D90000108F2D22046FEF72DFF09B00320BDE86E
:101DA000F08F206A2844206203E0D4E9012130202A
:101DB00090476D1EEBD3F8E74171000002FCFFFF76
:101DC00010B5436913B1AFF3008001E0FEF735FFB2
:101DD000012010BD127800F124010A7000224A701F
:101DE0000122EDE711684FF0FF32E9E710B54369D2
:101DF00013B1AFF3008001E0FFF72AF8012010BD16
:101E0000128800F1240182840022C2840122EDE7BD
:101E100011684FF0FF32E9E72DE9F34F4FF0000A68
:101E20000C4656468DB001200C9001F10C000B9031
:101E300062690B9801219047051E2DD0252D2CD0CD
:101E4000216A8847C0B162690B9801219047216AD5
:101E500088470028F7D16269411E0B98904700E03F
:101E6000761CA1690D988847216A88470028F7D118
:101E7000E1690D988847DBE7A1690D988847A8427A
:101E8000074601D1761CD3E7E1690D9888477F1C8E
:101E900002D1BAF1000F6FD06BE162690B98002795
:101EA0003D46394690472A2804D162690B980121A2
:101EB00090470125DFF8D08262690B980121904795
:101EC000A0F130010A290AD24745E5DC07EB87017A
:101ED00000EB4107303FDFD445F01005ECE7E906A1
:101EE00001D46FF000476C280AD04C2814D0682821
:101EF00015D06A280DD074281CD07A281AD01DE07D
:101F000062690B98012190476C2802D045F00405C6
:101F100014E045F002050DE045F020050AE0626995
:101F20000B9801219047682802D045F0080505E08C
:101F300045F4006562690B9801219047C4E9015797
:101F400065283DD019DC58287AD00CDC452837D0DC
:101F500004DC252826D041289ED131E046282FD008
:101F6000472899D12CE05B2877D0612828D06328B6
:101F70007CD0642823D15AE0F6E06F2848D008DCF2
:101F800066281DD067281BD0692821D06E2816D15D
:101F900027E0702845D0732868D0752847D0782866
:101FA0000DD14DE0A1690D988847252805463FF4DD
:101FB00069AFE1690D9888476D1C3FF46AAFD8E0BE
:101FC0000D9923466A466FF00100AFF30080C5E02B
:101FD00045F0400023464FF000026060A80736D469
:101FE0003EE0E8077FF447AF2068011D21600068EC
:101FF000290501D506701BE7290701D5068017E7DB
:10200000A90703D5F117C0E9006111E706600FE7E2
:1020100045F0400023464FF008026060A80716D440
:102020001EE040F60E0125EA0100606016E045F072
:10203000400023464FF00A026060A80707D40FE073
:1020400045F040006060A80708D5234610220D998E
:102050006FF00100AFF3008080E007E0102223461C
:102060000D996FF00100FEF7B7FA77E04FF0000925
:1020700063284F46C8464B46CB4602D05B2806D065
:1020800038E0E80601D40120A060012732E062694F
:10209000D4F80CB00B98012190475E2807D14FF07F
:1020A000010949466269D4F80CB00B989047216940
:1020B00039B900210A4603AB43F82120491C0829FD
:1020C000FADBD8B3216949B308F1010862690B98BA
:1020D000012190475D28F4D1B9F1000F09D000200B
:1020E00003A951F82020D24341F82020401C0828A1
:1020F000F7DB03AB2069002820794FEA40701ED03F
:102100005B462246CDF80080CDE901970D99002865
:102110006FF0010020DAAFF300801FE0C11703AABF
:1021200000EBD1614B1121F01F0102EB8302411A38
:1021300013680120884003431360C7E719E00D9935
:10214000224600286FF00100009702DAAFF300800A
:1021500004E0AFF3008001E0AFF3008000280ADA6A
:10216000401C06D10C9820B14FF0FF300FB0BDE8F5
:10217000F08F5046FAE7E90701D10AF1010A064457
:1021800000200C9054E60000CCCCCC0C10B50146DD
:10219000C268900703D0900607D5886A0AE0FEF768
:1021A0005FF801210160881E10BD8B6948681844E2
:1021B0000B69C01A91F848301BB191F84910401AC8
:1021C00010BD1103FCD50028FADD401E10BD70B50E
:1021D00016460C46054600F073F8036893F80101B3
:1021E000012806D0FF2C0FD8185D68B101202C7093
:1021F00070BDD3F807013246214603F207130344AA
:102200002846BDE8704018474FF0FF3070BD0028E9
:1022100001D000F04FB8704710B500F029F9BDE8C3
:102220001040FFF7F4BF10B500F03CF9BDE81040D6
:10223000FFF7EDBF10B5002102A000F0FFF801206C
:1022400010BD00005349475056464E3A2050757213
:1022500065207669727475616C20666E2063616CAE
:102260006C656400124B694600F580528A421A6020
:1022700001D8114670471960704730B50C4D6B4658
:10228000A3F580532C6822449A420FD89B1A02F57A
:10229000805003EBD37302EB6303984200D91846D6
:1022A000C01D20F007020C60101B2A6030BD00002A
:1022B0006001002001491820ABBEFEE726000200A5
:1022C00010B500F005F8001D10BD00BF695F0000EB
:1022D00000487047144600202DE9F0411F4604468F
:1022E00003260168072A01F4006004DB08B116A583
:1022F00005E016A503E008B115A500E015A521F03D
:1023000010002060A069C01EA0610FB1401EA06136
:102310002046FEF759FC4FB1D4E9012138469047D9
:10232000206A401C2062C01C206206E0206AFAE796
:10233000D4E9012115F8010B9047761EF8D220460A
:10234000FEF758FCBDE8F0814E414E006E616E0014
:10235000494E4600696E66002DE9F04781461646F3
:102360008AB0354878440DC88DE80D00324878446D
:10237000801C03AC0DC884E80D0041F69B30084476
:10238000372190FBF1F290FBF1F5A5F1800501FBFF
:1023900012041B3C02D56442012000E00020DFF85B
:1023A00098A080460027FA44AAF1BE0A0EE0E00792
:1023B0000AD03246684607EB470101230AEB810148
:1023C00000F031FB8DE8070064107F1C002CEED17B
:1023D000194F7F44AE3F19E0E80715D007EB041012
:1023E0000DF1180A90E80E008AE80E00C068F0426D
:1023F00001D1981908903246012306A903A800F0DC
:1024000012FB03AB83E807006D10641C002DE3D1C1
:102410004FF0010332466946B8F1000F03A802D01D
:1024200000F0ECFA01E000F0FEFAC9E90001C9F899
:1024300008200AB0BDE8F087386A000070B505468C
:102440000C460A2000E06D1C00F054F835B12878E5
:102450000028F8D102E0641C00F04CF814B1207898
:102460000028F8D1BDE870400A2000F043B8000011
:1024700010B5014602A0FFF7E1FF012010BD0000EA
:1024800053494752545245443A2052656469726533
:1024900063743A2063616E2774206F70656E3A2012
:1024A0000000000010B5012805D0002103A0FFF7AF
:1024B000C5FF012010BD09A1F8E7000053494752AC
:1024C000544D454D3A204F7574206F662068656104
:1024D00070206D656D6F7279000000003A204865CC
:1024E0006170206D656D6F727920636F72727570A7
:1024F0007465640008B569468DF800000320ABBE22
:1025000008BD70475FEA400C08BF91F0000F4FEA2A
:102510008C234FEAC12243EA51514FEA1C5018BFA5
:1025200000F5F0404FEA300018BF41F000415FEA8B
:102530006C5C00F02980BCF1FF3F08BF40F0804098
:102540007047130C06BF12044FF0100C4FF0000C34
:10255000130E04BF12020CF1080C130F04BF12017A
:102560000CF1040C930F04BF92000CF1020CD30F7A
:1025700004BF52000CF1010C11464FF00002A0F113
:102580001F00A0EB0C00704711F0004F08BF704710
:1025900031F000413FF4D5AF0B0C06BF09044FF0FA
:1025A000100C4FF0000C0B0E04BF09020CF1080CCC
:1025B0000B0F04BF09010CF1040C8B0F04BF890041
:1025C0000CF1020CCB0F04BF49000CF1010CCCF153
:1025D0002003A0EB0C0022FA03F302FA0CF241EA0A
:1025E000030100F10100704720F07F4C80EA0300F6
:1025F00023F07F47ACEB070303F57C5300F000406A
:1026000003F1FF032DE980494FEA154B09B44FEA66
:10261000144325EA0B4E24EA03480FF2042606EB86
:10262000132749083E785FEA320203FB0667C7F5C5
:10263000000707FB06F64FEA54374FEAD64606F185
:10264000020607FB066CCCF1005C4FEA1C472CEA43
:10265000074C07FB06F40CFB06F504EB15464FEAA6
:10266000961634BF00204FF000404FEAD13706FBEA
:1026700007FC4FEA1C4C0CFB0BF7D21B03FB0CF7BF
:1026800061EB07010CFB0EF7B0EB074072EB174252
:102690000CFB08F734BFA2EB0742B2EB074261EB39
:1026A00017414FEA0C444FEA910706FB07FC4FEA3B
:1026B0001C4C0CFB0BF7B0EBC74072EB573203FB23
:1026C0000CF734BFA2EBC742B2EBC74261EB573104
:1026D0000CFB0EF7B0EBC70072EB57720CFB08F760
:1026E00034BFA2EBC702B2EBC70261EB5771039F85
:1026F0004FEA816141EA921104EBCC044FEAD137F1
:102700004FEA826206FB07FC42EA90124FEA8060C1
:102710004FEA1C4C0CFB0BF7D21B03FB0CF761EBD5
:1027200007010CFB0EF7B0EB074072EB17420CFBF6
:1027300008F734BFA2EB0742B2EB074261EB174147
:102740004FEA8C554FEA910704EB9C2406FB07FCEB
:102750004FEA1C4C0CFB0BF7B0EBC74072EB573247
:1027600003FB0CF734BFA2EBC742B2EBC74261EBED
:1027700057310CFB0EF7B0EBC70072EB57720CFB36
:1027800008F734BFA2EBC702B2EBC70261EB577187
:1027900015EB4C254FEA816141EA92114FEA8262C2
:1027A0004FEAD13742EA901206FB07FC44F10004DD
:1027B0004FEA80604FEA1C4C0CFB0BF7D21B03FB6B
:1027C0000CF761EB07010CFB0EF7B0EB074072EB67
:1027D00017420CFB08F734BFA2EB0742B2EB0742EB
:1027E00061EB174115EB1C154FEA813141EA92412B
:1027F0004FEA823242EA90424FEA80304FEA0C764A
:1028000044F1000448EA03434EEA0B484FF0000E3F
:10281000B2EB080C71EB030724BF624639464EEB5E
:102820000E0E4FF0000B0018524149414BEB0B0BC1
:10283000B2EB080C71EB03077BF1000B24BF62467F
:1028400039464EEB0E0E4FF0000B00185241494135
:102850004BEB0B0BB2EB080C71EB03077BF1000B9E
:1028600024BF624639464EEB0E0E51EA020718BFEE
:1028700046F0010616EB0E7655F1000254F1000108
:1028800003D5BDE88901BDE80088BDE88901BDE840
:102890000048B619524141EB0101A3F10103704711
:1028A00080807F7E7D7C7B7A79787776767574738D
:1028B000727171706F6E6E6D6C6C6B6A6A6968684C
:1028C000676666656464636362616160605F5F5EE2
:1028D0005E5D5D5C5C5B5B5A5A5959585857575658
:1028E00056555555545453535252525151505050BD
:1028F0004F4F4F4E4E4D4D4D4C4C4C4B4B4B4A4A0F
:102900004A49494948484847474747464646454552
:10291000454444444443434343424242424141418B
:10292000002B9C4630D477002BD01CB54FEA3707DC
:1029300003B44FF010004FF01001BAF1000F06D0B1
:10294000BCF1000FDCBF40F0080040F008014FF080
:1029500000000FBCBDE810400BF1010BBBF1010FF3
:1029600008BF5FEA170722BF12F1010211F101014E
:102970004FF0004143F1000300F0004043EA000043
:102980007047F9D35708D0E746EA064613F1400FDF
:102990004FEA16461FDD13F1200FDFBF16430A462C
:1029A000002120335B42BED0C3F1200746EA064631
:1029B00002FA07F74FEA164646EA0706C3F1200770
:1029C00022FA03F201FA07F721FA03F14FF00003AC
:1029D00042EA0702A7E746EA020646EA06464FEA47
:1029E000164646EA0106BCBF46EA0646360C4FF0DC
:1029F00000034FF000024FF0000194E72DE9804CF6
:102A00009A46934670B491E8380007C831EA400C02
:102A100048BF34EA430C03D5FFF7E6FDFFF780FF1C
:102A2000F0BCBDE8008C2DE9804C9A46934670B40A
:102A300091E8380007C810F0804F08BF13F0804FAE
:102A400003D100F005F8FFF76BFFF0BCBDE8008C88
:102A500020F07F4780EA030023F07F4C07EB0C0354
:102A6000A3F57C5300F00040A3F1FE0392F0000FA9
:102A700000F0B38095F0000F00F077802DE9014958
:102A80004FEA11404FEA144621EA004800FB06FCD9
:102A900024EA064708FB06F607FB08F800FB07F7E1
:102AA00018EB06484CEB164C4FEA124B18EB074854
:102AB0004FEA15464CEB174022EA0B4E0BFB06FC87
:102AC00025EA06470EFB06F607FB0EFE0BFB07F793
:102AD0001EEB064E4CEB164C4FF000061EEB074E5D
:102AE0004CEB174B18EB0B0840F1000018EB0E0BEA
:102AF00058EB000840F100008F1A4FF000013CBF76
:102B0000C943661B14BFB5EB040C00213CBFC9438D
:102B1000F61B4FEA17444EEA8E0E27EA04454FEAA9
:102B20001C4704FB07622CEA074C05FB07F70CFB6C
:102B300005F604FB0CFC16EB074642EB174216EBBE
:102B40000C4642EB1C421BEB060658EB02024141CD
:102B500046EA9E0601D5BDE80189B619524141EB0E
:102B60000101A3F10103BDE801894FEA14454FEAD1
:102B7000114724EA054621EA074C05FB07F406FB4A
:102B800007F70CFB06F105FB0CFC11EB074144EBCE
:102B900017444FEA124711EB0C4144EB1C4422EA64
:102BA000074C05FB07F206FB07F70CFB06F605FBD7
:102BB0000CFC16EB074642EB174216EB0C4642EBB9
:102BC0001C456A1854F1000148BF7047B6195241BC
:102BD00041EB0101A3F10103704795F0000F37D0DD
:102BE0004FEA11424FEA144721EA024624EA074C11
:102BF00002FB07F106FB07F70CFB06F402FB0CFCDB
:102C000014EB074441EB17414FEA154714EB0C4412
:102C100041EB1C4125EA074C02FB07F506FB07F7D1
:102C20000CFB06F602FB0CFC16EB074645EB1745C2
:102C300016EB0C4645EB1C42121951F1000148BF3E
:102C40007047B619524141EB0101A3F101037047EE
:102C50004FEA14454FEA114724EA054621EA074C9A
:102C600005FB07F106FB07F70CFB06F24FF0000629
:102C700005FB0CFC12EB074241EB174112EB0C4237
:102C800051EB1C4148BF7047921841EB0101A3F181
:102C90000103704710B504F08BFABDE8104004F052
:102CA0005FB80021C16070470021014803F0E0BB1C
:102CB0000064004010B590F821100024022903D0D0
:102CC00004218163012439E001680A6822F00E02C0
:102CD0000A6001680A6822F001020A60184A016865
:102CE000914208BF01211DD0164A914208BF102110
:102CF00018D0154A914208BF4FF4807112D0134A80
:102D0000914208BF4FF480510CD0114A914208BF44
:102D10004FF4803106D00F4A91420CBF4FF480111E
:102D20004FF080710C4A5160012180F82110002180
:102D300080F82010416B002918BF8847204610BD3D
:102D4000080002401C0002403000024044000240E3
:102D5000580002406C000240000002400148006838
:102D6000704700000801002070B5041F006841682A
:102D700021F4E061416094F9640094F9655000F039
:102D8000EEFE284600F0EBFE022084F86C0070BDD9
:102D90000122001F002904BF80F86E20704701291E
:102DA00008BF80F86F2070472DE9F04104460068A5
:102DB0004669456852490E4218BF15F4807F0BD012
:102DC000216C41F0010121646FF480714161206840
:102DD000016841F40041016016F4813F18BF15F409
:102DE000807F07D0206C40F00200206421686FF4DF
:102DF0000070486116F4823F18BF15F4807F61D0DF
:102E000094F83EC0638D94F83D00226B6FF48061AE
:102E1000BCF1200F08BF002B07D1212818BF29289B
:102E20000CD0282808BF212A08D0206C40F00400CC
:102E3000206494F83E00102842D15BE094F83D30C5
:102E40002046D4F82CC000222027DFF8B880BCF13F
:102E5000040F14BFBCF1080F282B02D0212B18D06F
:102E60002EE0C0F82C800368D3F804C02CF4E06C8A
:102E7000C3F804C00368596101680B6823F48063D8
:102E80000B60026380F83D7080F83E2000F0B8FCD3
:102E900018E0C0F82C802123036380F83D7080F88F
:102EA0003E200268536823F4E06353600268516176
:102EB00001680A6822F480620A6000F0CCFD01E03B
:102EC0002068416116F4843F18BF15F4807F07D055
:102ED000206C40F00800206421686FF400604861B5
:102EE000206C002808BFBDE8F0812046BDE8F04115
:102EF00001F014BD2068026842F400720260DFE74E
:102F0000000101000000FFFF2DE9F84F02689769FA
:102F10005169D2F804C090F83E60DFF8A484DFF86D
:102F20009CA4DFF8A094202400234FEAB845102E7B
:102F300018BF402E17D011EA0A0F18BF1CF4007FEB
:102F400000F07F829369002113F0040F08BF012174
:102F5000926912F0800F0CBF8289028B92B2FFF748
:102F600017FFBDE8F88F11F0011F18BF1CF4007F98
:102F70002FD090F83E60402E09D00669B6F5804FFC
:102F800008D0066DA6B1066D012E19D06DE0066D54
:102F900026B909E090F83D60212E05D0466C46F038
:102FA0000106F6B2166160E0466C06F0FE06F9E72F
:102FB000466C4FF0F00A06F440764AEAD616F1E77E
:102FC000466C4FF0F10A06F440764AEAD6161661CE
:102FD0004BE0FD4E31421CBF1CF4007F466CE0D13B
:102FE00011EA0A0F18BF1CF4007F3ED090F83EB0E3
:102FF000C66AD0F830A090F83DE0BEF1220F03D0B1
:1030000056699269009230E0D0F850E0BEF1000FAE
:1030100008BFBBF1400FF3D0D0F850B0BBF1000FA8
:1030200004BFD0F810B0BBF5404F47D0B0F82AB07D
:10303000BBF1000F6ED0B0F82AB0BBF1010F48D041
:10304000468D022E75D0166846F4806616600268BA
:10305000566816F4006F03D0566846F480565660E2
:103060000268566992690092036517EA080F00F03A
:103070002B8111EA090F4FF0110618BF1CF4806F65
:1030800000F0F580294240F0F78090F83D2090F85C
:103090003EC0C16A058D002D6DD0212A06D000BF2B
:1030A000BCF1400F0CBF222ABDE8F88F418D0029EA
:1030B00074D090F83E10402971D0AAE05669966904
:1030C0000096166846F480761660026D521C026502
:1030D000CBE716F5803F0FD0042E1CBF082EBAF1A7
:1030E000120F1FD0C66A022E16680CBF46F4806607
:1030F00026F480661660B3E7166826F480661660CC
:103100000268566816F4006F04D0166826F48066CC
:103110001660A5E7566996690096166846F400762B
:103120001660A1E7166826F4806616600268F1E76B
:10313000FFE7C66A022E16680BD046F400661660DA
:103140000268566996690096166826F480661660CD
:1031500006E046F48066166002685669926900923D
:103160000268566816F4006F3FF47EAF566846F466
:103170008056566078E7212A92D104291CBF08297D
:1031800011F5803F0CD001684A6822F4E0624A6081
:10319000066380F83E3080F83D401BE01EE024E0EE
:1031A00001684A6822F4E0624A6001680A6842F4F1
:1031B00000720A60036380F83D4090F83E10402999
:1031C00006D100BF80F83E3000F03FFCBDE8F88F2C
:1031D00080F83E3000F01AFBBDE8F88F00684168C7
:1031E00021F480614160BDE8F88F016DE1B1016DAE
:1031F00001292CD0016D022918BFBDE8F88F90F885
:103200003D1022292CD090F83D10212918BFBDE88F
:10321000F88F416A4A1C4262026809781161418D47
:10322000491E4185BDE8F88FC16C0129816C08D029
:103230000268C1F307211161016D491C0165BDE8F8
:10324000F88F0268C9B21161016D891C05E0816CBB
:103250000268C9B21161016D491C0165BDE8F88FB2
:103260000068016841F480710160BDE8F88F29426F
:1032700008BFBDE8F88F00BF1CF4007F08BFBDE8A1
:10328000F88FC16A90F83D20212A18BFBDE8F88F59
:10329000428D002ABDD104291CBF082911F5803FA9
:1032A0007FF471AF01684A6822F4E0624A60016805
:1032B0000A6842F400720A60036380F83D4090F8A7
:1032C0003E10402984D17DE7404A114218BF1CF4CA
:1032D000806F51D0294253D190F83D10222918BF58
:1032E000BDE8F88F418D03290AD901680A69416A4E
:1032F0004B1C43620A70418D491E4185BDE8F88F21
:10330000022918BF032901680A6822F480620A6052
:1033100003D0C16A022906D00AE001680A6842F4B3
:1033200000620A605AE701680A6842F400620A60B3
:1033300001684A6822F4E0624A6001680A69416AE9
:1033400001F1010CC0F824C00A70418D491E41856D
:1033500080F83D40036390F83E10402906D100BF3D
:1033600080F83E3000F070FBBDE8F88F80F83E300A
:1033700000F048FABDE8F88F294208BFBDE8F88F91
:103380001CF4007F08BFBDE8F88FC16A428D032A94
:103390001ED0428D022AA8D104291CBF082911F58C
:1033A000803F26D00268D2F800C02CF4806CC2F8AE
:1033B00000C0022918BF012916D01FE00200010039
:1033C000040010008000010008000100400001001E
:1033D00004291CBF082911F5803F86D101680A68BD
:1033E00022F480620A6080E701680A6842F4807211
:1033F00003E001680A6842F400720A6001680A6921
:10340000416A01F1010CC0F824C00A70418D491EC7
:10341000418501680A69416A01F1010CC0F824C0C4
:103420000A70418D491E418501684A6822F4407244
:103430004A6080F83D40036390F83E10402995D1E2
:103440008EE77E4E314218BF1CF4007F73D090F897
:103450003D10D2F804C02CF4E06CC2F804C002683D
:10346000D2F814C0CDF800C0D2F800C04CF0010C66
:10347000C2F800C00268D2F800C02CF4806CC2F818
:1034800000C00268526812F4006F0BD090F83D2023
:10349000222A1BBF90F83D202A2A826B426B1268B9
:1034A00052684285428D1AB30268D2F814C01CF0EB
:1034B000040F09D0D2F810C0426A551C456282F848
:1034C00000C0428D521E42850268D2F814C01CF022
:1034D000400F09D0D2F810C0426A551C456282F8EC
:1034E00000C0428D521E4285026C42F0040202640A
:1034F000026C1AB1BDE8F84F01F010BA28291CBFC0
:103500002A2929290BD0026B222A1CBF2229BDE8B7
:10351000F88F036380F83D4080F83E3075E04849FD
:10352000C162036380F83D4080F83E3000F068F9E6
:10353000BDE8F88FFFE717EA080F4FF028033AD0ED
:1035400011EA090F18BF1CF4806F28D029422AD134
:1035500090F83D10428D002A08BFBDE8F88F426AFE
:1035600002F1010CC0F824C0D0F800C01278CCF8E9
:103570001020428D521E4285428D002A0CBF2929FF
:10358000BDE8F88F01684A6822F480624A60212110
:10359000016380F83D3000F05EFABDE8F88F294203
:1035A00008BFBDE8F88F1CF4007F1ABF418D0029C9
:1035B000BDE8F88F2DE6234C214218BF1CF4806F24
:1035C00027D0294229D190F83D10B0F82AC0BCF18B
:1035D000000F08BFBDE8F88FD2F810C0426A541C33
:1035E000446282F800C0428D521E4285428D002AFC
:1035F0000CBF2A29BDE8F88F01684A6822F480626E
:103600004A602221016380F83D3000F020FABDE8D5
:10361000F88F294208BFBDE8F88F1CF4007F1ABF5D
:10362000418D0029BDE8F88F1269416A4B1C436245
:103630000A70418D491E4185BDE8F88F10000100D8
:103640000000FFFF4000010090F83D1020291CBF42
:1036500002207047282180F83D1001680A6812F0A6
:10366000010F03D10A6842F001020A6001680A688A
:1036700042F480620A600068416841F44071416030
:10368000002070472DE9F04190F86910041F0027D1
:10369000002918BFC7682046B4F96220B4F9601049
:1036A00003F03EF9E7B1012184F86D10261D25468F
:1036B0003046276100F020F895F85820281D002199
:1036C000002A08BF094902D0012A08BF0849094B4E
:1036D00043F82200284603F0ABF83046FFF7B4FF6A
:1036E000022084F86C00BDE8F0810000F967000852
:1036F00015680008E0190020002804BF0120704769
:1037000070B5044690F83D00002520B984F83C507F
:10371000204600F09BF9242084F83D0020680168D1
:1037200021F00101016000F04FFB33492268B0FB3A
:10373000F1F15160314A6368934298BF491C07D93F
:103740004FF4967359434FF47A73B1FBF3F1491C6C
:103750002368196261688A420AD34900B0FBF1F21A
:10376000C2F30B02042A34BF0420B0FBF1F023E0C3
:10377000A368002B0EBF01EB410201EBC10202EB7B
:103780000112B0FBF2F218BF42F480421205120D92
:1037900008BF012010D0002B04BF01EB4101B0FB9A
:1037A000F1F007D001EBC10202EB0111B0FBF1F027
:1037B00040F4804040F400402168C861D4E907012A
:1037C000084321680860D4E9031008432168886031
:1037D000D4E9050108432168C8602068016841F008
:1037E000010101602564202084F83D00256384F8F0
:1037F0003E50002070BD000040420F00A086010036
:10380000FFF722BF082180F86810704708B5011F34
:10381000836F0822CBB1D1F88C30B3B191F87430FA
:10382000002B03BF02230A468B660B4618BF8A662D
:103830008A6E0092B1F88C2093B2D1F88820B1F84A
:10384000701089B200F004F808BD81F86C2008BD42
:1038500078B400260096DDF810C090F83D40202C8A
:103860006CD1BCF1040F18BFBCF1010F1DD1354C58
:10387000256846F2A814B5FBF4F404EBC40505EB87
:1038800004140094651E009508D20663202180F878
:103890003D1080F83C6078BC032070470468A46940
:1038A00014F0020F18BF2C46ECD190F83C40012CCC
:1038B00044D0012480F83C400468256815F0010FCD
:1038C00003D1256845F0010525600468256825F4C5
:1038D00000652560222480F83D40102480F83E4099
:1038E000066442624385C0F82CC0428D0285416463
:1038F000016B11291CBF016B002915D1BCF1040F0C
:1039000018BFBCF1010F05D01CF5803F1CBF016B37
:10391000112909D101680A6842F480620A600168CD
:103920000A6842F480720A6080F83C60006841686E
:1039300041F4E061416078BC0020704778BC02200F
:10394000704700000C01002078B400260096049C0B
:1039500090F83DC0BCF1200F70D1042C18BF012C91
:1039600024D1DFF8E0C046F2A815DCF800C0BCFBAB
:10397000F5FC0CEBCC0505EB0C1CCDF800C000BF32
:10398000BCF10105009508D20663202180F83D10A6
:1039900080F83C6078BC03207047D0F800C0DCF8A9
:1039A00018C01CF0020F18BFAC46E9D190F83CC01B
:1039B000BCF1010F42D04FF0010C80F83CC0D0F8B0
:1039C00000C0DCF8005015F0010F05D1DCF8005004
:1039D00045F00105CCF80050D0F800C0DCF80050EC
:1039E00025F40065CCF800504FF0210C80F83DC064
:1039F0004FF0100C80F83EC0066442624385C462FA
:103A0000428D02854164016B0091122918BF002983
:103A100009D1042C1CBF012C122904D101680A68A9
:103A200042F480720A6080F83C600068416841F4AA
:103A3000E061416078BC00207047FFE778BC02205D
:103A4000704700000C01002070477047704700214C
:103A500080F86B107047002180F86A1070470000F2
:103A600002480168491C01607047000008010020FD
:103A7000074810B5016841F010010160032000F013
:103A800081F80F2000F006F800F068F8002010BD63
:103A90000020024038B52948C16941F00401C161E4
:103AA000C16901F004010091016941F00401016163
:103AB000016921F00401016101F088F8214C2048DE
:103AC000224920604FF6FF70E0601F480068B0FB9D
:103AD000F1F0401E606000202061A0606061A06184
:103AE000204600F0B1FB0021204600F0E9FB042154
:103AF000204600F0E5FB2068426A15490A60096823
:103B000001F57A718163144812490068C0F8B81051
:103B10004FF0E0214FF08040C1F800012068C168FB
:103B200041F00101C1602068C16841F00401C16039
:103B3000204600F0A5FB002038BD00000010024028
:103B400000080040901C00200C01002040420F00A3
:103B5000F40000207D7F000808ED00E07047002899
:103B6000B8BF704700F01F01012202FA01F14009BD
:103B7000800000F1E020C0F88011BFF34F8FBFF349
:103B80006F8F7047074900F007000A684FF6FF0380
:103B90001A4042EA002040F0FD7040F0806008606A
:103BA000704700000CED00E02DE9F0436E4E044636
:103BB00085B030680F4600F00700B84209D230687F
:103BC00020F0070038433060306800F00700B8424A
:103BD0007AD12078DFF8948110F0020F07D0D8F85E
:103BE0000400A16820F0F0000843C8F80400207821
:103BF00010F0010F59D06068012826D0D8F80010C5
:103C0000022828D011F0020F5ED000BFD8F80410AF
:103C100021F003010843C8F80400FFF79FF80546A8
:103C2000606841F28839012819D00228D8F80400C8
:103C300000F00C0026D020B3FFF790F8401B484559
:103C40002ED905B00320BDE8F083D8F8001011F498
:103C5000003FDBD138E011F0007FD7D134E0D8F855
:103C6000040000F00C0004281FD000BFFFF776F816
:103C7000401B4845E5D8D8F8040000F00C000428A3
:103C8000F4D112E0082810D0FFF768F8401B48452F
:103C9000D7D8D8F8040000F00C000828F4D104E0CC
:103CA000D8F8040010F00C0FC6D1306800F00700FF
:103CB000B8420DD9306820F00700384330603068D2
:103CC00000F00700B84203D005B00120BDE8F08342
:103CD000207810F0040F07D0D8F80400E16820F431
:103CE000E0600843C8F80400207810F0080F08D0FE
:103CF000D8F80400216920F4605040EAC100C8F8F7
:103D000004001B4B0FCB8DE80F001A48006804908D
:103D1000D8F80410184801F00C02042A14D0082A1C
:103D200012D1C1F3834311F4803F1DF8032004BF77
:103D30001248504308D0D8F8041004ABC1F34041F6
:103D4000595CB0FBF1F05043D8F804100C4AC1F3B1
:103D50000311515CC8400B4908600F20FFF79AFE21
:103D600005B00020BDE8F0830020024000100240B2
:103D70005C3E00086C3E000800127A0000093D001D
:103D8000648C00080C0100200F2202600C4A53686A
:103D900003F003034360536803F0F0038360536848
:103DA00003F4E063C36052684FF4E06303EAD202B5
:103DB00002610448006800F00700086070470000D6
:103DC000001002400020024004480549006849688C
:103DD000044AC1F30221515CC84070470C01002025
:103DE00000100240748C00080448054900684968C6
:103DF000044AC1F3C221515CC84070470C01002045
:103E000000100240748C000814A386B00FCB8DE81C
:103E10000F0016A0164B006804905968154801F071
:103E20000C02042A04BF06B07047082A1CBF06B063
:103E30007047C1F3834C11F4803F1DF80C2001BF83
:103E40000D48504306B07047596804ABC1F3404178
:103E5000595C06B0B0FBF1F0504370470203040513
:103E6000060708090A0B0C0D0E0F101001020000C6
:103E70000010024000127A0000093D002DE9F84FC1
:103E800004460078E04D10F0010F59D0686800F04A
:103E90000C00042808D0686800F00C0008280CD139
:103EA000686810F4803F08D0286810F4003F47D0BD
:103EB0006068002800F0A58142E06068B0F5803FAE
:103EC00004BF286840F480300AD010B1B0F5A02FAC
:103ED00011D0286820F480302860286820F48020E1
:103EE00028606068D0B1FEF739FF0646286810F4F4
:103EF000003F08D024E0286840F48020286028682B
:103F000040F48030ECE7FEF729FF801B642800F2C4
:103F10003681286810F4003FF5D011E0FEF71EFF4F
:103F20000646286810F4003F0AD000BFFEF716FFCF
:103F3000801B642800F22381286810F4003FF5D12B
:103F40002078B24E10F0020F4FF0010B4FF0000836
:103F500045D0686810F00C0F14D0686800F00C00B1
:103F6000082804BF686810F4803F0BD0206918B39C
:103F7000C6F800B0FEF7F2FE0746286810F0020F00
:103F800009D011E0286810F0020F1CBF2069012839
:103F90000AD000F036B9FEF7E1FEC01B02287DD83A
:103FA000286810F0020FF6D02868616920F0F80048
:103FB00040EAC100286012E0C6F80080FEF7CEFE9D
:103FC0000746286810F0020F09D000BFFEF7C6FEB2
:103FD000C01B022862D8286810F0020FF6D12078A2
:103FE00010F0080F35D08A48A169F9B1C0F800B0C7
:103FF000FEF7B4FE0746686A10F0020F09D100BF51
:10400000FEF7ACFEC01B022848D8686A10F0020F09
:10401000F6D080484FF4FA510068B0FBF1F0009000
:1040200000BF0098411E0091FAD212E0C0F8008053
:10403000FEF794FE0746686A10F0020F09D000BF31
:10404000FEF78CFEC01B022828D8686A10F0020F09
:10405000F6D1207810F0040F79D0E8694FF0000A0B
:1040600010F0805F09D1E86940F08050E861E869AC
:104070004FF0010A00F080500090DFF89C91D9F8D1
:10408000000010F4807F19D1D9F8000040F480704E
:10409000C9F80000FEF762FE074600E06FE0D9F8BD
:1040A000000010F4807F09D1FEF758FEC01B642881
:1040B00065D8D9F8000010F4807FF5D0E0680128B9
:1040C00004BF286A40F0010009D008B1052813D0C8
:1040D000286A20F001002862286A20F00400286283
:1040E000E06841F28837D0B1FEF738FE8146286A91
:1040F00010F0020F08D023E0286A40F00400286284
:10410000286A40F00100EAE7FEF728FEA0EB09006C
:10411000B84234D8286A10F0020FF5D010E0FEF74C
:104120001DFE8146286A10F0020F09D0FEF716FE28
:10413000A0EB0900B84222D8286A10F0020FF5D18E
:10414000BAF1000F03D0E86920F08050E861E0691F
:10415000F0B3696801F00C01082952D00228C6F8B2
:1041600060800FD0FEF7FAFD0446286810F0007F4B
:1041700044D000BFFEF7F2FD001B02283AD903200D
:10418000BDE8F88FFEF7EAFD0746286810F0007FCB
:1041900009D000BFFEF7E2FDC01B0228EFD8286857
:1041A00010F0007FF6D1206AB0F5803F05D1686835
:1041B000A16820F4003008436860D4E9080108438E
:1041C000696821F4741108436860C6F860B000E0C3
:1041D00014E0FEF7C3FD0446286810F0007F0DD1FF
:1041E000FEF7BCFD001B0228C9D8286810F0007F2C
:1041F000F6D003E0286810F0007FBBD10020BDE8B6
:10420000F88F0120BDE8F88F001002400000424204
:10421000800442420C010020007000400268042328
:1042200003FA01F1136A8B431362136A1943116293
:1042300001684A6C42F400424A640068016841F037
:104240000101016000207047002804BF0120704771
:1042500010B5044690F83D0028B9002084F83C00D1
:10426000204600F00CF8022084F83D00211D206853
:1042700000F008FD012084F83D00002010BD7047CB
:10428000022180F83D1001680A6842F001020A60CC
:10429000012180F83D100020704790F83C20012A51
:1042A00004BF022070470122022380F83D300368DA
:1042B000596180F83D20002180F83C100846704785
:1042C0000268012303FA01F1136A8B431362136A34
:1042D000194311620168A1F18042B2F5963203D10F
:1042E0004A6C42F400424A640068016841F00101EE
:1042F000016000207047000090F83C30012B04BFA3
:1043000002207047F0B4012480F83C40022380F87A
:104310003D307C4B3AB1042A3ED0082A7CD00C2A8E
:1043200079D000F0E7B80268D2F820C02CF0010C78
:10433000C2F820C0D2F820C0556896690F6826F0F0
:1043400073063E438F682CF0020C47EA0C0C9A422D
:104350000DD12CF00803D1F80CC04CEA030323F074
:10436000040C25F440734D692B438D691D43556042
:1043700096614B685363C2F820C00268936943F0AA
:10438000080393610268936923F004039361026850
:104390009369096919433BE00268D2F820C02CF008
:1043A000100CC2F820C0D2F820C0556896690F687A
:1043B00026F4E64646EA07268F682CF0200C4CEAE5
:1043C000071C9A420FD12CF08003D1F80CC043EAAD
:1043D0000C1323F0400C25F440634D6943EA850338
:1043E0008D6943EA8505556096614B689363C2F811
:1043F00020C00268936943F4006393610268936983
:1044000023F48063936102689369096943EA012197
:1044100091616FE000E03AE00268D2F820C02CF42D
:10442000807CC2F820C0D2F820C05568D6690F68D9
:1044300026F073063E438F682CF4007C4CEA072C70
:104440009A420FD12CF40063D1F80CC043EA0C233C
:1044500023F4806C25F440534D6943EA05138D69BC
:1044600043EA05155560D6614B68D363C2F820C096
:104470000268D36943F00803D3610268D36923F06B
:104480000403D3610268D3690969194331E0026802
:10449000D2F820C02CF4805CC2F820C0166AD2F892
:1044A00004C0D5690F6825F4E64545EA07258F68FD
:1044B00026F4005646EA07369A4205D12CF480438A
:1044C000D1F814C043EA8C1CC2F804C0D5614B6813
:1044D000136416620268D36943F40063D36102680F
:1044E000D36923F48063D3610268D369096943EA1D
:1044F0000121D16180F83D40002180F83C10F0BCE2
:1045000008467047002C0140002804BF0120704776
:1045100010B5044690F83D0028B9002084F83C000E
:10452000204600F00CF8022084F83D00211D206890
:1045300000F0A8FB012084F83D00002010BD70476A
:104540000268012303FA01F1136A8B431362136AB1
:10455000194311620168A1F18042B2F5963203D18C
:104560004A6C42F400424A640068016841F001016B
:10457000016000207047006881B0016811F0010FF0
:1045800004BF016811F0020F03D04068009001B031
:104590007047016811F0040F04BF016811F0080FA3
:1045A000F3D101B07047000070B501680446086897
:1045B000CA684B6910F00F0F4FF0200545D003F08B
:1045C000010C02F490765CEA060C00F0FD8010F01D
:1045D000010F18BF12F4807F05D0D4F83CC04CF016
:1045E000010CC4F83CC010F0040F18BF13F0010F09
:1045F00005D0D4F83CC04CF0020CC4F83CC010F01C
:10460000020F18BF13F0010F05D0D4F83CC04CF0D6
:10461000040CC4F83CC010F0080F18BF13F0010FD1
:1046200003D0E36B43F00803E363E36B002B08BFA5
:1046300070BD10F0200F18BF12F0200F73D094F847
:104640003A202046222A4BD087E010F0200F18BFD6
:1046500012F0200F00F0B88094F83A202046222A69
:1046600018BF70BD8268B2F5805F23D0026982B343
:10467000496801F07F02816A4B1C83620A70C18D18
:10468000491E0904090CC18518BF70BD0168CA68BC
:1046900022F02002CA600168CA6822F48072CA60EF
:1046A00001684A6922F001024A6180F83A5000F03C
:1046B00003F970BD0369826A4968002B14BFC9B24F
:1046C000C1F308011180816A14BF491C891C8162F1
:1046D000D5E7FFE74A68816A4B1C83620A70CEE720
:1046E0008268B2F5805F0FD00269EAB1496801F0D3
:1046F0007F02816A4B1C83620A70C18D491E0904C6
:10470000090CC18529D115E00369826A4968002B2B
:1047100014BFC9B2C1F308011180816A14BF491CDA
:10472000891C8162E9E718E04A68816A4B1C836250
:104730000A70E2E70168CA6822F02002CA600168D4
:10474000CA6822F48072CA6001684A6922F00102D4
:104750004A6180F83A5000F0AFF820684169E26B96
:10476000C1F3801102F00802114326D0C16821F480
:104770009071C1602068416921F00101416184F8B4
:104780003A502068416911F0400F12D0416921F080
:1047900040014161606B60B12D494163606BFEF780
:1047A00089FA002808BF70BD606B416BBDE870409E
:1047B00008472046FFF7DFFE70BD2046FFF7DBFE0F
:1047C0000020E06370BD00BF10F0800F18BF12F032
:1047D000800F2CD094F83900212818BF70BDA06834
:1047E000B0F5805F206A16D0411C216221680078F4
:1047F0004860E08C401E0004000CE08418BF70BDCF
:104800002068C16821F08001C1602068C16841F062
:104810004001C16070BD0088C0F308004860206995
:104820000028206A14BF401C801C2062E1E710F0C1
:10483000400F14BF12F0400F70BD2046CA6822F02E
:104840004002CA6084F8395000F037F870BD0000AB
:10485000FD4C0008002804BF0120704770B50446D5
:1048600090F83900002520B984F83850204600F02F
:1048700022F8242084F839002068C16821F400510E
:10488000C160204600F042FA2068016921F490419D
:1048900001612068416921F02A0141612068C168F5
:1048A00041F40051C160E563202084F8390084F8A8
:1048B0003A00002070BD704770470068016811F031
:1048C000400F1CBF6FF040010160704710B5406A97
:1048D00001680A6822F480620A6000214185426B07
:1048E0005163826B516390F83D302022602B80F839
:1048F0003D2080F83E1007D001680A6822F00102CE
:104900000A60FEF7BFFE10BD016401680A6822F06C
:1049100001020A60FEF728FA10BD000070B590F899
:104920003D100446002520260068292918BF2A29A1
:1049300030D094F83D10602905D0416811F4006F23
:1049400008BF84F83D60256384F83E50016821F477
:10495000006101602068416811F4006F3AD041683D
:1049600021F400614160606B374990F82120012AF1
:1049700015D04163606BFEF79DF900283AD020689E
:10498000016821F00101016084F83D60606B416BBA
:1049900088472FE02563282184F83D10D6E7A06BD7
:1049A0004163A06BFEF786F920B32068416911F0DE
:1049B000400F04D00169606A421C62620170206885
:1049C000016821F00101016084F83D60A06B416B3A
:1049D00088470FE094F83D10602920D0416911F01C
:1049E000400F04D00169606A421C62620170204677
:1049F000FEF748FE94F83D00282818BF70BD206CD3
:104A000010F0040F08BF70BD1048E062256384F801
:104A10003D6084F83E502046FEF7F2FE70BD84F8FB
:104A20003D602564416911F0400F04D00169606A5E
:104A3000421C626201702068016821F0010101607E
:104A40002046FEF791F9D5E7CD4800080000FFFFAA
:104A50002DE9F04790B001264FF4E01A4FF4A02062
:104A60000024CDF824A00096CDE901040225EF032F
:104A7000CDE907576846FFF701FA4FF00F084FF4EA
:104A8000806970B9CDF82880CDE90B54CDE90D943B
:104A900002210AA8FFF788F8002804BF10B0BDE87B
:104AA000F0870096CDE90174CDF824A0CDE9075731
:104AB0006846FFF7E3F970B9CDF82880CDE90B54CB
:104AC000CDE90D9402210AA8FFF76EF8002804BF73
:104AD00010B0BDE8F0870320CDE900041020CDE937
:104AE00004604FF46010CDE9084007956846FFF771
:104AF000C5F970B9CDF82880CDE90B54CDE90D94F6
:104B000002210AA8FFF750F8002804BF10B0BDE842
:104B1000F087FEE738B500241D49052833D2DFE8C9
:104B200000F0030D162029001A4C886940F004009B
:104B30008861886900F00400009027E0164C8869BD
:104B400040F008008861886900F0080007E0134C15
:104B5000886940F010008861886900F010000090BA
:104B600014E00F4C886940F020008861886900F0EB
:104B70002000F4E70B4C886940F0400088618869A8
:104B800000F04000EBE708A001F078FD204638BDBA
:104B90000010024000080140000C014000100140DC
:104BA000001401400018014050696E6D617020656D
:104BB00072726F723A2077726F6E6720706F7274C4
:104BC000206E756D6265722E0000000016494868FF
:104BD000164A10F00C03164818BF042B01D0082BFE
:104BE00001D0026015E04A684B6802F470124FF081
:104BF000020C13F4803F0CEB924203D04B6813F489
:104C0000003F03D00B4B5A43026002E0074B5A436C
:104C100002604968084AC1F30311515C026822FA34
:104C200001F10160704700000010024000127A009C
:104C30000C01002000093D00648C00080E4801684A
:104C400041F00101016041680C4A11404160016876
:104C500021F4102121F080710160016821F480218C
:104C60000160416821F4FE0141604FF41F01816041
:104C70000349C00308607047001002400000FFF8BD
:104C800008ED00E030B40268194BDFF868C01A4C38
:104C9000984218BFB0F1804F03D0604518BFA042C2
:104CA00003D14D6822F070022A43984218BFB0F138
:104CB000804F03D0604518BFA04205D1D1F80CC089
:104CC00022F440724CEA0202D1F814C022F08002B1
:104CD0004CEA020202608A68C2620A6882629842F2
:104CE00004BF096901630121416130BC70470000C4
:104CF000002C0140000400400008004010B5406A4C
:104D00000021C185C184FFF736FC10BD2DE9F041BB
:104D1000044600680169E26821F4405111430161D1
:104D20002169A0680143606901432068C26822F4D8
:104D3000037222F4A0521143C16020684169A26944
:104D400021F440711143416120685C4D3226A0F18D
:104D50008041B1F59C3158D0FFF736F800EBC00127
:104D600001EB001061688900B0FBF1F7FFF72CF848
:104D700000EBC00101EB001061688900B0FBF1F0AD
:104D8000A5FB001040096FF01801484307EB8000B5
:104D900006EB0010A5FB0010400900F0F007FFF73C
:104DA00013F800EBC00101EB001061688900B0FB53
:104DB000F1F0A5FB0010400907EB0017FFF704F81E
:104DC00000EBC00101EB001061688900B0FBF1F855
:104DD000FEF7FAFF00EBC00101EB001061688900EB
:104DE000B0FBF1F0A5FB001040096FF0180148433B
:104DF00008EB800006EB0010A5FB00102168C0F353
:104E0000431038448860BDE8F081FEF7EDFF00EB09
:104E1000C00101EB001061688900B0FBF1F7FEF7FB
:104E2000E3FF00EBC00101EB001061688900B0FBFB
:104E3000F1F0A5FB001040096FF01801484307EBA3
:104E4000800006EB0010A5FB0010400900F0F00701
:104E5000FEF7CAFF00EBC00101EB0010616889009A
:104E6000B0FBF1F0A5FB0010400907EB0017FEF7BF
:104E7000BBFF00EBC00101EB001061688900B0FBD3
:104E8000F1F8FEF7B1FF00EBC00101EB0010616823
:104E90008900B0FBF1F0A5FB001040096FF018018C
:104EA000484308EB800006EB0010A5FB00102168CA
:104EB000C0F3431038448860BDE8F0811F85EB5192
:104EC0000021014801F0D4BA0064004000210148EB
:104ED00001F0CEBA006400402DE9F84705460C46C3
:104EE00016461F46DDE90A9ADDF824803B46324625
:104EF00021462846CDF8008000F06BF94B4632463B
:104F00002146284600F00CF92068504501DA206857
:104F100000E050462060BDE8F88730B50C4601221D
:104F200013E050F82230114605E04D1E50F8255090
:104F300040F82150491E002904DD4D1E50F825502F
:104F40009D42F2DC40F82130521CA242E9DB30BD28
:104F500010B5C021022000F0CDF808B9002010BD26
:104F60000021032000F0C6F808B90020F7E700216F
:104F7000042000F0BFF808B90020F0E70021052068
:104F800000F0B8F808B90020E9E70021062000F099
:104F9000B1F808B90020E2E70F21082000F0AAF8D4
:104FA00008B90020DBE70321092000F0A3F808B9C5
:104FB0000020D4E727210A2000F09CF808B900203F
:104FC000CDE724210C2000F095F808B90020C6E7B1
:104FD00024210D2000F08EF808B90020BFE77F21C2
:104FE000102000F087F808B90020B8E70120B6E7E4
:104FF00010B54021092000F07DF808B9002010BD4F
:105000000120FCE77CB504460D46019401200346CF
:1050100001AAAE2100900B4800F068FD08B1002005
:105020007CBD0020012301AAAF210090054800F0BB
:1050300025FD20B99DF8040028700120F0E700202C
:10504000EEE70000C41800207FB504460D4600209E
:105050002060286003A9FFF7D5FF03A90120FFF70F
:10506000D1FF07208DF804000120034601AAAE21DC
:1050700000901F4800F03AFD10B1002004B070BD50
:105080000020062301AAAF210090194800F0F6FC89
:1050900008B10020F2E79DF804603604206830442F
:1050A00020609DF8056036022068304420609DF83D
:1050B00006602068304420609DF807603604286848
:1050C000304428609DF80860360228683044286023
:1050D0009DF809602868304428602068C0F31100FA
:1050E00020602868C0F3110028600120C6E7000096
:1050F000C41800207CB504460D468DF804408DF898
:1051000005500020022301AAAE210090034800F0C0
:10511000EDFC08B901207CBD0020FCE7C41800208C
:105120002DE9F04F05460C469246984629465046D2
:10513000226800F02EF84FF0FF3621E0D4F800B0DE
:10514000701C2060771C18E055F82710701C10B9EF
:105150004FF0FF3001E055F82600A1EB0009C145F2
:1051600003DCC8F10000814506DA55F827102268F3
:10517000501C206045F822107F1C5F45E4DB761C44
:105180002068B042DADC28462168FFF7C6FEBDE899
:10519000F08FF0B503461546012217E051F8224082
:1051A000104605E0461E51F8266041F82060401E7A
:1051B000002808DD53F82470461E51F8266053F885
:1051C0002660B742EEDC41F82040521CAA42E5DBE3
:1051D000F0BDF0B505461C46059E012000270F6076
:1051E00030E052F82070B7422BDD52F820C0471E45
:1051F00052F82770BC4524DD012300E05B1CC71872
:10520000A74207DA52F8207000EB030C52F82CC0CA
:105210006745F3D052F8207000EB030C52F82CC015
:1052200067450CDD0F680F2F09DAD1F800C00CF1CB
:1052300001070F6045F82C005F1C384402E0184459
:1052400000E0401C671E8742CBDCF0BD2DE9FF4F1C
:10525000C6B08846994600204590002406E046984E
:1052600050F82410459808444590641C4445F6DBEA
:105270004598B0FBF8F04590002408E0469850F8B7
:1052800024104598081AFE4941F82400641C44453E
:10529000F4DB002417E0FA4850F824100246601CA2
:1052A00052F820000144A01C52F820000144E01CE8
:1052B00052F820000F183846F91707EB9171891042
:1052C00042F82410641CB4F5F87FE4DB00240AE003
:1052D000EB49601C51F8200051F82410401AE949AC
:1052E00041F82400641CB4F5F77FF1DD00240EE0E2
:1052F000E44951F824200B46611C53F82110501842
:1053000000EBD07149101A4642F82410641CB4F521
:10531000F77FEDDB00251BE0002043902C460BE0DF
:10532000D84850F82410601BD74A32F81020439810
:1053300001FB12004390641C681D8442F0DB40F2C4
:105340007A41439890FBF1F0CE4941F825006D1C5D
:10535000B5F5F47FE0DD00204190002410E0C9485D
:1053600050F82400002803DDC64850F8240003E06C
:10537000C44850F824004042419908444190641CBC
:10538000B4F5F77FEBDD40F2EF11419890FBF1F0BF
:10539000419005210822419840F2EF13CDE9012107
:1053A0000090B84A40A912A8FFF796FD002011907E
:1053B0004098022821DB01240BE012A850F82410A9
:1053C000601E12AA52F82000091A11980844119080
:1053D000641C40988442F0DB4098401E119991FB78
:1053E000F0F0119041F27071119891FBF0F1549826
:1053F000016001215598017005E0A44954980160AD
:10540000002155980170002407E012A850F82400EC
:10541000801C30A941F82400641C40988442F4DBCD
:1054200000240CE0469850F82400954941F82400E7
:10543000489850F82400964941F82400641C4445DB
:10544000F0DB0020429000242DE00120449030A8A1
:1054500050F824A04FF080703F900AF10500B0F59D
:10546000F77F1FDC0A3800281CDD054611E0844860
:1054700050F825103F9881420ADA449808B100207C
:1054800044907F4850F825003F9021A840F82450D0
:105490006D1C0AF105008542E9DB449810B9429879
:1054A000401C4290641C40988442CEDB4298022803
:1054B00008DA7648C9F800000021539801704AB014
:1054C000BDE8F08F00242EE06D4951F824200B46F2
:1054D000611C53F821100A44A11C53F821100A44FE
:1054E000E11C53F821105018C11700EB917189107D
:1054F0001A4642F82410664951F824200B46611CD4
:1055000053F821100A44A11C53F821100A44E11C4D
:1055100053F821105018C11700EB917189101A46E9
:1055200042F82410641CB4F5F87FCDDB0020049011
:105530000026002404E0002005A941F82400641C92
:10554000052CF8DB00240DE021A850F82400B0F56C
:10555000FA7F06DD4D48C9F800000021539801701C
:10556000ADE7641C42988442EEDB0024AEE04FF0CD
:105570007F400D900C9021A9601C51F8200051F83B
:105580002410401A0A2879DD21A850F8245016E08A
:105590003B4850F825100C98814204DD384850F8FB
:1055A00025000C900A953A4850F825100D98814234
:1055B00004DD374850F825000D900B956D1C21A98E
:1055C000601C51F82000A842E2DC601C51F8200069
:1055D0002F4951F8200021A951F824102C4A52F8E3
:1055E0002110401A21A951F824200B99891A484307
:1055F000109021A9601C51F8200051F82410411A84
:10560000109890FBF1F021A951F82410204A52F88B
:1056100021100844109011460B9851F82010109852
:10562000081A109021A9601C51F82000144951F863
:10563000200021A951F82410114A52F82110401AD3
:1056400021A951F824200A99891A48430F9021A9C9
:10565000601C51F8200051F82410411A0F9890FB5B
:10566000F1F021A951F82410054A52F821100844FC
:105670000F9011460B9851F820100BE025E0000028
:105680002409002064010020D288000819FCFFFFD3
:10569000F41000200F98081A0F900C9910984843A6
:1056A000C01103900D990F984843C711002F0CDDCE
:1056B000052E0ADA039840B164210398484390FB11
:1056C000F7F005A941F82600761C641C4298401E9C
:1056D000A0423FF74CAF314605A8FFF71EFC30460D
:1056E00006EBD0714FEA610BBBF1010F0CDDABF1A2
:1056F000010105AA52F8211052F82B20881800EB5E
:10570000D0714910049103E005A850F82B000490D3
:10571000049802280DDD0498B8280ADA094904988B
:10572000085C0E900E98C9F8000001215398017092
:1057300005E00548C9F8000000215398017000BF3A
:10574000BDE600001089000819FCFFFF30B50A46CD
:1057500013461BB1856804682C6002E0C5680468C4
:105760002C6000BF00BF30BD70B504460068012248
:105770000021036920469847050048BF70BD206896
:10578000022200210369204698470646206800222D
:105790002946036920469847304670BD002070476F
:1057A00010B50C464C3002F019FB204610BD00002D
:1057B00010B500EB011000F19804D0F8A40028B94E
:1057C00040F20E220449054801F06CFCE0680168D3
:1057D0002046BDE810400847BD8F0008B88F00087C
:1057E00070B504464C3002F04BFA054600F47C518B
:1057F000606C002818BF002904D004F13802036847
:1058000010469847626B05F0FC01002A14BF00297E
:1058100070BD04F128001268BDE87040104770B5F3
:10582000044600680D46016820468847294604F171
:105830004C0002F0F6F8C4F8B850206841682046E1
:10584000BDE87040084770472DE9F0410446006804
:105850001D461646D0F800C00F462046E0472B46AE
:105860003246394604F14C0002F0DEF82068416807
:105870002046BDE8F0410847704700002DE9F04799
:1058800090460446364A84B034481E468946206015
:10589000D2E902130022A160E3603249216148F29B
:1058A00007016161E261A46104F1080121622E49EE
:1058B0006162BFF36F8FBFF34F8F0020606360643E
:1058C00084F8480084F849004C2104F14C00FBF7AF
:1058D0009DF802231022254904F1980000F069FB8D
:1058E000DFF88CA0A0F198050027066205EB0710F1
:1058F00000F198046E461F48CDF80CA00090B44209
:105900000DD0E168204600291CBF896888470398AC
:1059100018B142683146204690470398E0600399E9
:10592000684600291CBF896888477F1C022FDDD389
:105930004246494605F14C0002F0E4F805F14C00FE
:10594000D5F8B81002F06DF82A460B4905F14C0065
:1059500002F08AF904B02846BDE8F0870C8E0008F2
:105960008C8C000801A090E8AF820008A32C0008EE
:10597000AC8F00087B5F0008B157000830B583B0DA
:105980000C46054602460BA16846FAF7E3FC2146A1
:105990006846FAF748FF040008D02868C16928461D
:1059A000884718B120460021FAF764FF03B020466B
:1059B00030BD00003A25700070B5174C05462068D0
:1059C000002804BF201D2060261DB04204D05B22A9
:1059D0001249134801F066FB00212468114B102284
:1059E000084600BF53F821C0AC4508BF43F821006A
:1059F000491C521EF6D10848002C04BF011D01604D
:105A00000068B04208BF70BD5B22BDE8704003492A
:105A1000034801F047BB0000F8000020508F000849
:105A20003C8F0008F81A00200021FAF723BF10B5B8
:105A300004463C3001F058F82269002A14BF0028BF
:105A400010BD231D12680146BDE8104018461047DE
:105A500007480168002904BF011D0160001D814243
:105A600008BF70475B220349034801F01BBB0000DD
:105A700034010020508F00083C8F00082DE9F843C6
:105A80000446006888461D4601681746089E204661
:105A900088472068016820468847DFF84C90D9F88D
:105AA0000000A04207D004F13C00D4F8D41000F06C
:105AB00011FFC9F80040206841682046884786F0F9
:105AC000010000902B463A46414604F13C0001F0AB
:105AD0001BF806462068416820468847B54214BF37
