:03000000020A8A67
:0C0A8A00787FE4F6D8FD75812A020AD1BD
:10000300435243204572726F72202020202020200B
:10001300004454483132204E6F742046696E642088
:1000230020002044485431325F4F6E655F57697238
:100033006520003A002000202020202020202020BE
:1000430020202020202020000000000000000000CD
:100053000000000000000000000038FCFC38000035
:100063000000000D0D000000000E1E00001E0E001B
:10007300000000000000000020F8F820F8F820003D
:10008300020F0F020F0F0200387C444747CC980041
:10009300060C0838380F070030300080C06030008D
:1000A3000C060301000C0C0080D87CE4BCD8400093
:1000B300070F0808070F080000101E0E00000000BD
:1000C30000000000000000000000F0F80C04000035
:1000D300000003070C0800000000040CF8F0000007
:1000E3000000080C0703000080A0E0C0C0E0A0806F
:1000F3000002030101030200008080E0E080800031
:1001030000000003030000000000000000000000E6
:100113000000101E0E000000808080808080800020
:1001230000000000000000000000000000000000CC
:100133000000000C0C00000000000080C0603000D4
:100143000C06030100000000F8F80CC40CF8F000E2
:1001530003070C080C070300001018FCFC00000048
:100163000008080F0F080800080C84C4643C18003A
:100173000E0F0908080C0C00080C444444FCB8009A
:10018300040C0808080F0700C0E0B098FCFC8000CE
:10019300000000080F0F08007C7C444444C4840022
:1001A300040C0808080F0700F0F84C4444C0800012
:1001B300070F0808080F07000C0C0484C47C3C00DC
:1001C30000000F0F00000000B8FC444444FCB800DA
:1001D300070F0808080F0700387C444444FCF80064
:1001E300000808080C07030000000030300000007E
:1001F3000000000606000000000000303000000090
:100203000000080E060000000080C06030180800DF
:1002130000000103060C08000020202020202000FD
:1002230000010101010101000008183060C08000D5
:1002330000080C0603010000181C04C4E43C180069
:100243000000000D0D000000F0F008C8C8F8F00031
:10025300070F080B0B0B0100E0F0988C98F0E000FF
:100263000F0F0000000F0F0004FCFC4444FCB80017
:10027300080F0F08080F0700F0F80C04040C18000F
:1002830003070C08080C060004FCFC040CF8F0003F
:10029300080F0F080C07030004FCFC44E40C1C00CB
:1002A300080F0F08080C0E0004FCFC44E40C1C00AF
:1002B300080F0F0800000000F0F80C84848C9800ED
:1002C30003070C0808070F00FCFC404040FCFC003F
:1002D3000F0F0000000F0F00000004FCFC040000DF
:1002E3000000080F0F08000000000004FCFC0400DD
:1002F300070F08080F07000004FCFCC0E03C1C00CB
:10030300080F0F00010F0E0004FCFC0400000000A6
:10031300080F0F08080C0E00FCFC387038FCFC00BA
:100323000F0F0000000F0F00FCFC3870E0FCFC0016
:100333000F0F0000000F0F00F8FC040404FCF8008A
:10034300070F0808080F070004FCFC44447C38002E
:10035300080F0F0800000000F8FC040404FCF80078
:10036300070F080E3C3F270004FCFC44C4FC380084
:10037300080F0F00000F0F00183C6444C49C1800C2
:10038300060E0808080F0700001C0CFCFC0C1C00E0
:100393000000080F0F080000FCFC000000FCFC003C
:1003A300070F0808080F0700FCFC000000FCFC0016
:1003B3000103060C06030100FCFC000000FCFC002A
:1003C300070F0E030E0F07000C3CF0E0F03C0C008F
:1003D3000C0F0301030F0C00000C7CC0C07C3C001D
:1003E3000000080F0F0800001C0C84C4643C1C00B0
:1003F3000E0F0908080C0E000000FCFC04040000AA
:1004030000000F0F080800003870E0C080000000F3
:100413000000000103070E0000000404FCFC0000C0
:10042300000008080F0F0000080C0603060C080064
:1004330000000000000000000000000000000000B9
:10044300202020202020202000000307040000009B
:10045300000000000000000000A0A0A0E0C0000019
:10046300070F0808070F080004FCFC2060C0800089
:10047300000F0F08080F0700C0E020202060400095
:10048300070F0808080C040080C06024FCFC00006F
:10049300070F0808070F0800C0E0A0A0A0E0C000F5
:1004A300070F0808080C040040F8FC440C1800006F
:1004B300080F0F0800000000C0E02020C0E020006B
:1004C300276F48487F3F000004FCFC4020E0C00049
:1004D300080F0F00000F0F00000020ECEC000000DD
:1004E3000000080F0F0800000000000020ECEC00E3
:1004F30000307040407F3F0004FCFC80C06020005F
:10050300080F0F01030E0C00000004FCFC000000A8
:100513000000080F0F080000E0E060C060E0C000CA
:100523000F0F0007000F0F0020E0C02020E0C000E5
:10053300000F0F00000F0F00C0E0202020E0C000DC
:10054300070F0808080F070020E0C02020E0C000C4
:10055300407F7F48080F0700C0E02020C0E0200054
:10056300070F08487F7F400020E0C06020E0C00004
:10057300080F0F080000000040E0A02020604000AA
:10058300040C09090B0E04002020F8FC20200000B5
:100593000000070F080C0400E0E00000E0E00000AA
:1005A300070F0808070F080000E0E00000E0E00084
:1005B3000003070C0C070300E0E0008000E0E0000C
:1005C300070F0C070C0F07002060C080C0602000DD
:1005D300080C0703070C0800E0E0000000E0E0005F
:1005E300474F4848683F1F00606020A0E06020003C
:1005F3000C0E0B09080C0C00004040F8BC0404006E
:10060300000000070F080800000000BCBC00000049
:100613000000000F0F000000000404BCF84040007D
:100623000008080F07000000080C040C080C040065
:1006330000000000000000001060028C00FE929297
:1006430092929292FE00000004047E014448507F7F
:1006530040407F50484440000000FC242424FC25F3
:100663002624FC242424040040308F80844C552508
:100673002525554C808080001060028C0000FE927E
:1006830092929292FE00000004047E01407E424258
:100693007E427E42427E4000060909E6F80C0402CF
:1006A30002020202041E0000000000071F30204067
:1006B300404040402010000000007C82827C00808B
:1006C300402010080402000000201008040201006A
:0806D3003E41413E0000000021
:050CC300C10001160054
:080CBA007F0C7EA9DEFEDFFCC9
:010CC200220F
:070C9200120C0A7F017E0035
:100C9900AD07AC06ED1DAE0470011C4E6005120CCB
:040CA900BA80F122FA
:0D0CAD00AE071FEE60060000000080F4227C
:100C0A00C2B3C2B7E4FEC290EF30E704D2918002C9
:100C1A00C291D2907D01EF7801088002C333D8FCDB
:050C2A00FF0EBE08E111
:010C2F0022A2
:100C3000C2B3D2B7E4FEC290EF30E704D291800293
:100C4000C291D2907D01EF7801088002C333D8FCB5
:050C5000FF0EBE08E1EB
:010C5500227C
:100B8000C2B3C2B67F027E00120C99D2B67F0A7E33
:100B900000120C997FE2120C927F2C120C0A7F2E0D
:100BA000120C0A7F2F120C927F23120C0A7F8112E3
:100BB0000C0A7F28120C0A7FA2120C0A7FC8120CA2
:100BC0000A7FA0120C0A7F40120C0A7FAF120C0A97
:030BD000D2B3227B
:100C5600AC05C2B31C1FEF24B0FF120C0AECC4543F
:0E0C66000F2410FF120C0AEC540FFF020C0AB0
:100C7400C2B3E4FBEB04FF7D01120C56E4FCE4FF79
:0D0C8400120C300CBC84F70BBB09E9D2B395
:010C91002240
:040BD3007BFF7F0322
:040BD7008F258D26B3
:100BDB00C2B3E4F527E5252527FFAD26120C56E415
:100BEB00FC1208BBFF120C30740129F9E43AFA0C21
:0E0BFB00BC10EE0527E527C3940240D9D2B303
:010C090022C8
:08096C007B007A00790C7D315B
:0A0974008F258D268B278A288929FC
:10097E00E4F52AC2B3AB27AA28A929852A82758352
:10098E00001208D4FFD394004062EF94204059EF38
:10099E00D3947E5053EF24E0F9E4FBE5252BFFAD15
:1009AE0026120C56E4FCEB75F008A4FFEC758300E0
:1009BE002FFFE58335F0FE75F010E9A4244BF58288
:1009CE00E5F03400F583E5822FF582E5833EF5836D
:1009DE00E493FF120C300CBC08CC0BBB02BD052AF5
:0C09EE0074082526F526808D052A8089D6
:0109FA0022DA
:100B1600E4F526F527F52520951A0582E58270026B
:100B26000583FFAE83E4FCFD7B507AC3F9F8D3124C
:100B3600095650E37F1E120CADE4F5273095037578
:100B46002701E4F583F58230951A0582E582700265
:100B56000583FFAE83E4FCFD7B507AC3F9F8D3121C
:100B6600095650E3E52625E0F526E5274226052524
:090B7600E525C3940840A0AF2658
:010B7F002253
:1006DB00C2957F147E00120C99D2957F1E120CAD21
:1006EB00E4F5163095030208AD751601FFFE209553
:1006FB00100FEF70010EC394F4EE940140F07517D8
:10070B0001E4FEFF3095100FEF70010EC39420EE45
:10071B00940340F0751701120B168F21120B168FD5
:10072B0022120B168F23120B168F24120B16E52198
:10073B002522252325246F60030208A5E52175F0EA
:10074B000AA4AEF07C002522F509EC3EF508E52461
:10075B0030E712D200E52375F00AA4FFAEF0E524D2
:10076B00547F2F800EC200E52375F00AA4AEF07CF7
:10077B00002524F50BEC3EF50AD3E50994B6E50804
:10078B00940340067508037509B6C3E50994C8E5DB
:10079B0008940050067508007509C8D3E50B9458EA
:1007AB00E50A94024009200006750A02750B58D31E
:1007BB00E50B94C8E50A94004009300006750A0061
:1007CB00750BC8750C20AE08AF097C037DE81209C8
:1007DB00017E007F64CFCDCFCECCCE120901EF24AA
:1007EB0030F50DAE08AF097C007D641209017E0067
:1007FB007F0ACFCDCFCECCCE120901EF2430F50E30
:10080B00750F2EAE08AF097C007D0A120901ED248D
:10081B0030F5107511207512207513207514207585
:10082B0015207F0312096C7A0679BB7D61120BD3FD
:10083B00300005750C2D8003750C20AE0AAF0B7CB8
:10084B00037DE81209017E007F64CFCDCFCECCCEE5
:10085B00120901EF2430F50DAE0AAF0B7C007D645D
:10086B001209017E007F0ACFCDCFCECCCE1209016B
:10087B00EF2430F50E750F2EAE0AAF0B7C007D0A00
:10088B00120901ED2430F5107F0512096C7BFF7AFC
:10089B0006799B7D617F05020BD77BFF7A0079037D
:0F08AB0080067BFF7A0079147D017F07120974A4
:0108BA00221B
:1009FB007FC87E00120C99120B80120C747BFF7A4D
:100A0B000079257D017F011209747A06793B7D01FE
:100A1B00120BD37A06795B7D117F03120BD77A0009
:100A2B0079367D217F031209747BFF7A0079387D3B
:100A3B00297F031209747BFF7A06797B7D017F0581
:100A4B00120BD77A06795B7D117F05120BD77A00D3
:100A5B0079367D217F051209747BFF7A0079387D09
:100A6B00297F051209747BFF7A00793A7D017F0794
:0F0A7B001209747FE87E03120C991206DB80F4D7
:100A96000209FBE493A3F8E493A34003F68001F272
:100AA60008DFF48029E493A3F85407240CC8C33361
:100AB600C4540F4420C8834004F456800146F6DF30
:100AC600E4800B0102040810204080900CC3E47EF1
:100AD600019360BCA3FF543F30E509541FFEE49325
:100AE600A360010ECF54C025E060A840B8E493A3EC
:100AF600FAE493A3F8E493A3C8C582C8CAC583CA17
:100B0600F0A3C8C582C8CAC583CADFE9DEE780BECE
:010CC800002B
:1008BB00BB010689828A83E0225002E722BBFE023B
:0908CB00E32289828A83E493226E
:1008D400BB010CE58229F582E5833AF583E02250D9
:1008E40006E92582F8E622BBFE06E92582F8E22223
:0D08F400E58229F582E5833AF583E493223D
:10090100BC000BBE0029EF8DF084FFADF022E4CCDA
:10091100F875F008EF2FFFEE33FEEC33FCEE9DECA3
:10092100984005FCEE9DFE0FD5F0E9E4CEFD22EDE9
:10093100F8F5F0EE8420D21CFEADF075F008EF2F33
:10094100FFED33FD4007985006D5F0F222C398FD24
:050951000FD5F0EA22C1
:10095600EB9FF5F0EA9E42F0E99D42F0EC6480C818
:0609660064809845F022B8
:00000001FF
